{
  "contractName": "AGIJobManager",
  "abi": [
    {
      "inputs": [
        {
          "internalType": "address",
          "name": "agiTokenAddress",
          "type": "address"
        },
        {
          "internalType": "string",
          "name": "baseIpfs",
          "type": "string"
        },
        {
          "internalType": "address[2]",
          "name": "ensConfig",
          "type": "address[2]"
        },
        {
          "internalType": "bytes32[4]",
          "name": "rootNodes",
          "type": "bytes32[4]"
        },
        {
          "internalType": "bytes32[2]",
          "name": "merkleRoots",
          "type": "bytes32[2]"
        }
      ],
      "stateMutability": "nonpayable",
      "type": "constructor"
    },
    {
      "inputs": [],
      "name": "Blacklisted",
      "type": "error"
    },
    {
      "inputs": [],
      "name": "ConfigLocked",
      "type": "error"
    },
    {
      "inputs": [],
      "name": "IneligibleAgentPayout",
      "type": "error"
    },
    {
      "inputs": [],
      "name": "InsolventEscrowBalance",
      "type": "error"
    },
    {
      "inputs": [],
      "name": "InsufficientWithdrawableBalance",
      "type": "error"
    },
    {
      "inputs": [],
      "name": "InvalidAgentPayoutSnapshot",
      "type": "error"
    },
    {
      "inputs": [],
      "name": "InvalidParameters",
      "type": "error"
    },
    {
      "inputs": [],
      "name": "InvalidState",
      "type": "error"
    },
    {
      "inputs": [],
      "name": "InvalidValidatorThresholds",
      "type": "error"
    },
    {
      "inputs": [],
      "name": "JobNotFound",
      "type": "error"
    },
    {
      "inputs": [],
      "name": "NotAuthorized",
      "type": "error"
    },
    {
      "inputs": [],
      "name": "NotModerator",
      "type": "error"
    },
    {
      "inputs": [],
      "name": "TransferFailed",
      "type": "error"
    },
    {
      "inputs": [],
      "name": "ValidatorLimitReached",
      "type": "error"
    },
    {
      "inputs": [],
      "name": "ValidatorSetTooLarge",
      "type": "error"
    },
    {
      "anonymous": false,
      "inputs": [
        {
          "indexed": true,
          "internalType": "address",
          "name": "nftAddress",
          "type": "address"
        },
        {
          "indexed": false,
          "internalType": "uint256",
          "name": "payoutPercentage",
          "type": "uint256"
        }
      ],
      "name": "AGITypeUpdated",
      "type": "event"
    },
    {
      "anonymous": false,
      "inputs": [
        {
          "indexed": true,
          "internalType": "address",
          "name": "to",
          "type": "address"
        },
        {
          "indexed": false,
          "internalType": "uint256",
          "name": "amount",
          "type": "uint256"
        },
        {
          "indexed": false,
          "internalType": "uint256",
          "name": "remainingWithdrawable",
          "type": "uint256"
        }
      ],
      "name": "AGIWithdrawn",
      "type": "event"
    },
    {
      "anonymous": false,
      "inputs": [
        {
          "indexed": false,
          "internalType": "uint256",
          "name": "newPercentage",
          "type": "uint256"
        }
      ],
      "name": "AdditionalAgentPayoutPercentageUpdated",
      "type": "event"
    },
    {
      "anonymous": false,
      "inputs": [
        {
          "indexed": true,
          "internalType": "address",
          "name": "owner",
          "type": "address"
        },
        {
          "indexed": true,
          "internalType": "address",
          "name": "approved",
          "type": "address"
        },
        {
          "indexed": true,
          "internalType": "uint256",
          "name": "tokenId",
          "type": "uint256"
        }
      ],
      "name": "Approval",
      "type": "event"
    },
    {
      "anonymous": false,
      "inputs": [
        {
          "indexed": true,
          "internalType": "address",
          "name": "owner",
          "type": "address"
        },
        {
          "indexed": true,
          "internalType": "address",
          "name": "operator",
          "type": "address"
        },
        {
          "indexed": false,
          "internalType": "bool",
          "name": "approved",
          "type": "bool"
        }
      ],
      "name": "ApprovalForAll",
      "type": "event"
    },
    {
      "anonymous": false,
      "inputs": [
        {
          "indexed": false,
          "internalType": "uint256",
          "name": "oldPeriod",
          "type": "uint256"
        },
        {
          "indexed": false,
          "internalType": "uint256",
          "name": "newPeriod",
          "type": "uint256"
        }
      ],
      "name": "CompletionReviewPeriodUpdated",
      "type": "event"
    },
    {
      "anonymous": false,
      "inputs": [
        {
          "indexed": true,
          "internalType": "address",
          "name": "locker",
          "type": "address"
        },
        {
          "indexed": false,
          "internalType": "uint256",
          "name": "atTimestamp",
          "type": "uint256"
        }
      ],
      "name": "ConfigurationLocked",
      "type": "event"
    },
    {
      "anonymous": false,
      "inputs": [
        {
          "indexed": false,
          "internalType": "uint256",
          "name": "jobId",
          "type": "uint256"
        },
        {
          "indexed": false,
          "internalType": "address",
          "name": "resolver",
          "type": "address"
        },
        {
          "indexed": false,
          "internalType": "string",
          "name": "resolution",
          "type": "string"
        }
      ],
      "name": "DisputeResolved",
      "type": "event"
    },
    {
      "anonymous": false,
      "inputs": [
        {
          "indexed": false,
          "internalType": "uint256",
          "name": "jobId",
          "type": "uint256"
        },
        {
          "indexed": false,
          "internalType": "address",
          "name": "resolver",
          "type": "address"
        },
        {
          "indexed": false,
          "internalType": "uint8",
          "name": "resolutionCode",
          "type": "uint8"
        },
        {
          "indexed": false,
          "internalType": "string",
          "name": "reason",
          "type": "string"
        }
      ],
      "name": "DisputeResolvedWithCode",
      "type": "event"
    },
    {
      "anonymous": false,
      "inputs": [
        {
          "indexed": false,
          "internalType": "uint256",
          "name": "oldPeriod",
          "type": "uint256"
        },
        {
          "indexed": false,
          "internalType": "uint256",
          "name": "newPeriod",
          "type": "uint256"
        }
      ],
      "name": "DisputeReviewPeriodUpdated",
      "type": "event"
    },
    {
      "anonymous": false,
      "inputs": [
        {
          "indexed": false,
          "internalType": "uint256",
          "name": "jobId",
          "type": "uint256"
        },
        {
          "indexed": false,
          "internalType": "address",
          "name": "resolver",
          "type": "address"
        },
        {
          "indexed": false,
          "internalType": "bool",
          "name": "employerWins",
          "type": "bool"
        }
      ],
      "name": "DisputeTimeoutResolved",
      "type": "event"
    },
    {
      "anonymous": false,
      "inputs": [
        {
          "indexed": true,
          "internalType": "address",
          "name": "newEnsRegistry",
          "type": "address"
        }
      ],
      "name": "EnsRegistryUpdated",
      "type": "event"
    },
    {
      "anonymous": false,
      "inputs": [
        {
          "indexed": false,
          "internalType": "uint256",
          "name": "jobId",
          "type": "uint256"
        },
        {
          "indexed": false,
          "internalType": "address",
          "name": "agent",
          "type": "address"
        }
      ],
      "name": "JobApplied",
      "type": "event"
    },
    {
      "anonymous": false,
      "inputs": [
        {
          "indexed": false,
          "internalType": "uint256",
          "name": "jobId",
          "type": "uint256"
        }
      ],
      "name": "JobCancelled",
      "type": "event"
    },
    {
      "anonymous": false,
      "inputs": [
        {
          "indexed": false,
          "internalType": "uint256",
          "name": "jobId",
          "type": "uint256"
        },
        {
          "indexed": false,
          "internalType": "address",
          "name": "agent",
          "type": "address"
        },
        {
          "indexed": false,
          "internalType": "uint256",
          "name": "reputationPoints",
          "type": "uint256"
        }
      ],
      "name": "JobCompleted",
      "type": "event"
    },
    {
      "anonymous": false,
      "inputs": [
        {
          "indexed": false,
          "internalType": "uint256",
          "name": "jobId",
          "type": "uint256"
        },
        {
          "indexed": false,
          "internalType": "address",
          "name": "agent",
          "type": "address"
        },
        {
          "indexed": false,
          "internalType": "string",
          "name": "jobCompletionURI",
          "type": "string"
        }
      ],
      "name": "JobCompletionRequested",
      "type": "event"
    },
    {
      "anonymous": false,
      "inputs": [
        {
          "indexed": false,
          "internalType": "uint256",
          "name": "jobId",
          "type": "uint256"
        },
        {
          "indexed": false,
          "internalType": "string",
          "name": "jobSpecURI",
          "type": "string"
        },
        {
          "indexed": false,
          "internalType": "uint256",
          "name": "payout",
          "type": "uint256"
        },
        {
          "indexed": false,
          "internalType": "uint256",
          "name": "duration",
          "type": "uint256"
        },
        {
          "indexed": false,
          "internalType": "string",
          "name": "details",
          "type": "string"
        }
      ],
      "name": "JobCreated",
      "type": "event"
    },
    {
      "anonymous": false,
      "inputs": [
        {
          "indexed": false,
          "internalType": "uint256",
          "name": "jobId",
          "type": "uint256"
        },
        {
          "indexed": false,
          "internalType": "address",
          "name": "validator",
          "type": "address"
        }
      ],
      "name": "JobDisapproved",
      "type": "event"
    },
    {
      "anonymous": false,
      "inputs": [
        {
          "indexed": false,
          "internalType": "uint256",
          "name": "jobId",
          "type": "uint256"
        },
        {
          "indexed": false,
          "internalType": "address",
          "name": "disputant",
          "type": "address"
        }
      ],
      "name": "JobDisputed",
      "type": "event"
    },
    {
      "anonymous": false,
      "inputs": [
        {
          "indexed": false,
          "internalType": "uint256",
          "name": "jobId",
          "type": "uint256"
        },
        {
          "indexed": false,
          "internalType": "address",
          "name": "employer",
          "type": "address"
        },
        {
          "indexed": false,
          "internalType": "address",
          "name": "agent",
          "type": "address"
        },
        {
          "indexed": false,
          "internalType": "uint256",
          "name": "payout",
          "type": "uint256"
        }
      ],
      "name": "JobExpired",
      "type": "event"
    },
    {
      "anonymous": false,
      "inputs": [
        {
          "indexed": false,
          "internalType": "uint256",
          "name": "jobId",
          "type": "uint256"
        },
        {
          "indexed": false,
          "internalType": "address",
          "name": "agent",
          "type": "address"
        },
        {
          "indexed": false,
          "internalType": "address",
          "name": "employer",
          "type": "address"
        },
        {
          "indexed": false,
          "internalType": "bool",
          "name": "agentPaid",
          "type": "bool"
        },
        {
          "indexed": false,
          "internalType": "uint256",
          "name": "payout",
          "type": "uint256"
        }
      ],
      "name": "JobFinalized",
      "type": "event"
    },
    {
      "anonymous": false,
      "inputs": [
        {
          "indexed": false,
          "internalType": "uint256",
          "name": "jobId",
          "type": "uint256"
        },
        {
          "indexed": false,
          "internalType": "address",
          "name": "validator",
          "type": "address"
        }
      ],
      "name": "JobValidated",
      "type": "event"
    },
    {
      "anonymous": false,
      "inputs": [
        {
          "indexed": false,
          "internalType": "bytes32",
          "name": "validatorMerkleRoot",
          "type": "bytes32"
        },
        {
          "indexed": false,
          "internalType": "bytes32",
          "name": "agentMerkleRoot",
          "type": "bytes32"
        }
      ],
      "name": "MerkleRootsUpdated",
      "type": "event"
    },
    {
      "anonymous": false,
      "inputs": [
        {
          "indexed": true,
          "internalType": "uint256",
          "name": "tokenId",
          "type": "uint256"
        }
      ],
      "name": "NFTDelisted",
      "type": "event"
    },
    {
      "anonymous": false,
      "inputs": [
        {
          "indexed": true,
          "internalType": "uint256",
          "name": "tokenId",
          "type": "uint256"
        },
        {
          "indexed": true,
          "internalType": "address",
          "name": "employer",
          "type": "address"
        },
        {
          "indexed": false,
          "internalType": "string",
          "name": "tokenURI",
          "type": "string"
        }
      ],
      "name": "NFTIssued",
      "type": "event"
    },
    {
      "anonymous": false,
      "inputs": [
        {
          "indexed": true,
          "internalType": "uint256",
          "name": "tokenId",
          "type": "uint256"
        },
        {
          "indexed": true,
          "internalType": "address",
          "name": "seller",
          "type": "address"
        },
        {
          "indexed": false,
          "internalType": "uint256",
          "name": "price",
          "type": "uint256"
        }
      ],
      "name": "NFTListed",
      "type": "event"
    },
    {
      "anonymous": false,
      "inputs": [
        {
          "indexed": true,
          "internalType": "uint256",
          "name": "tokenId",
          "type": "uint256"
        },
        {
          "indexed": true,
          "internalType": "address",
          "name": "buyer",
          "type": "address"
        },
        {
          "indexed": false,
          "internalType": "uint256",
          "name": "price",
          "type": "uint256"
        }
      ],
      "name": "NFTPurchased",
      "type": "event"
    },
    {
      "anonymous": false,
      "inputs": [
        {
          "indexed": true,
          "internalType": "address",
          "name": "newNameWrapper",
          "type": "address"
        }
      ],
      "name": "NameWrapperUpdated",
      "type": "event"
    },
    {
      "anonymous": false,
      "inputs": [
        {
          "indexed": true,
          "internalType": "address",
          "name": "previousOwner",
          "type": "address"
        },
        {
          "indexed": true,
          "internalType": "address",
          "name": "newOwner",
          "type": "address"
        }
      ],
      "name": "OwnershipTransferred",
      "type": "event"
    },
    {
      "anonymous": false,
      "inputs": [
        {
          "indexed": false,
          "internalType": "address",
          "name": "claimant",
          "type": "address"
        },
        {
          "indexed": false,
          "internalType": "string",
          "name": "subdomain",
          "type": "string"
        }
      ],
      "name": "OwnershipVerified",
      "type": "event"
    },
    {
      "anonymous": false,
      "inputs": [
        {
          "indexed": false,
          "internalType": "address",
          "name": "account",
          "type": "address"
        }
      ],
      "name": "Paused",
      "type": "event"
    },
    {
      "anonymous": false,
      "inputs": [
        {
          "indexed": false,
          "internalType": "string",
          "name": "reason",
          "type": "string"
        }
      ],
      "name": "RecoveryInitiated",
      "type": "event"
    },
    {
      "anonymous": false,
      "inputs": [
        {
          "indexed": false,
          "internalType": "address",
          "name": "user",
          "type": "address"
        },
        {
          "indexed": false,
          "internalType": "uint256",
          "name": "newReputation",
          "type": "uint256"
        }
      ],
      "name": "ReputationUpdated",
      "type": "event"
    },
    {
      "anonymous": false,
      "inputs": [
        {
          "indexed": true,
          "internalType": "address",
          "name": "contributor",
          "type": "address"
        },
        {
          "indexed": false,
          "internalType": "uint256",
          "name": "amount",
          "type": "uint256"
        }
      ],
      "name": "RewardPoolContribution",
      "type": "event"
    },
    {
      "anonymous": false,
      "inputs": [
        {
          "indexed": false,
          "internalType": "bytes32",
          "name": "clubRootNode",
          "type": "bytes32"
        },
        {
          "indexed": false,
          "internalType": "bytes32",
          "name": "agentRootNode",
          "type": "bytes32"
        },
        {
          "indexed": false,
          "internalType": "bytes32",
          "name": "alphaClubRootNode",
          "type": "bytes32"
        },
        {
          "indexed": false,
          "internalType": "bytes32",
          "name": "alphaAgentRootNode",
          "type": "bytes32"
        }
      ],
      "name": "RootNodesUpdated",
      "type": "event"
    },
    {
      "anonymous": false,
      "inputs": [
        {
          "indexed": true,
          "internalType": "address",
          "name": "from",
          "type": "address"
        },
        {
          "indexed": true,
          "internalType": "address",
          "name": "to",
          "type": "address"
        },
        {
          "indexed": true,
          "internalType": "uint256",
          "name": "tokenId",
          "type": "uint256"
        }
      ],
      "name": "Transfer",
      "type": "event"
    },
    {
      "anonymous": false,
      "inputs": [
        {
          "indexed": false,
          "internalType": "address",
          "name": "account",
          "type": "address"
        }
      ],
      "name": "Unpaused",
      "type": "event"
    },
    {
      "inputs": [],
      "name": "MAX_VALIDATORS_PER_JOB",
      "outputs": [
        {
          "internalType": "uint256",
          "name": "",
          "type": "uint256"
        }
      ],
      "stateMutability": "view",
      "type": "function"
    },
    {
      "inputs": [],
      "name": "additionalAgentPayoutPercentage",
      "outputs": [
        {
          "internalType": "uint256",
          "name": "",
          "type": "uint256"
        }
      ],
      "stateMutability": "view",
      "type": "function"
    },
    {
      "inputs": [
        {
          "internalType": "address",
          "name": "",
          "type": "address"
        }
      ],
      "name": "additionalAgents",
      "outputs": [
        {
          "internalType": "bool",
          "name": "",
          "type": "bool"
        }
      ],
      "stateMutability": "view",
      "type": "function"
    },
    {
      "inputs": [],
      "name": "additionalText1",
      "outputs": [
        {
          "internalType": "string",
          "name": "",
          "type": "string"
        }
      ],
      "stateMutability": "view",
      "type": "function"
    },
    {
      "inputs": [],
      "name": "additionalText2",
      "outputs": [
        {
          "internalType": "string",
          "name": "",
          "type": "string"
        }
      ],
      "stateMutability": "view",
      "type": "function"
    },
    {
      "inputs": [],
      "name": "additionalText3",
      "outputs": [
        {
          "internalType": "string",
          "name": "",
          "type": "string"
        }
      ],
      "stateMutability": "view",
      "type": "function"
    },
    {
      "inputs": [
        {
          "internalType": "address",
          "name": "",
          "type": "address"
        }
      ],
      "name": "additionalValidators",
      "outputs": [
        {
          "internalType": "bool",
          "name": "",
          "type": "bool"
        }
      ],
      "stateMutability": "view",
      "type": "function"
    },
    {
      "inputs": [],
      "name": "agentMerkleRoot",
      "outputs": [
        {
          "internalType": "bytes32",
          "name": "",
          "type": "bytes32"
        }
      ],
      "stateMutability": "view",
      "type": "function"
    },
    {
      "inputs": [],
      "name": "agentRootNode",
      "outputs": [
        {
          "internalType": "bytes32",
          "name": "",
          "type": "bytes32"
        }
      ],
      "stateMutability": "view",
      "type": "function"
    },
    {
      "inputs": [],
      "name": "agiToken",
      "outputs": [
        {
          "internalType": "contract IERC20",
          "name": "",
          "type": "address"
        }
      ],
      "stateMutability": "view",
      "type": "function"
    },
    {
      "inputs": [
        {
          "internalType": "uint256",
          "name": "",
          "type": "uint256"
        }
      ],
      "name": "agiTypes",
      "outputs": [
        {
          "internalType": "address",
          "name": "nftAddress",
          "type": "address"
        },
        {
          "internalType": "uint256",
          "name": "payoutPercentage",
          "type": "uint256"
        }
      ],
      "stateMutability": "view",
      "type": "function"
    },
    {
      "inputs": [],
      "name": "alphaAgentRootNode",
      "outputs": [
        {
          "internalType": "bytes32",
          "name": "",
          "type": "bytes32"
        }
      ],
      "stateMutability": "view",
      "type": "function"
    },
    {
      "inputs": [],
      "name": "alphaClubRootNode",
      "outputs": [
        {
          "internalType": "bytes32",
          "name": "",
          "type": "bytes32"
        }
      ],
      "stateMutability": "view",
      "type": "function"
    },
    {
      "inputs": [
        {
          "internalType": "address",
          "name": "to",
          "type": "address"
        },
        {
          "internalType": "uint256",
          "name": "tokenId",
          "type": "uint256"
        }
      ],
      "name": "approve",
      "outputs": [],
      "stateMutability": "nonpayable",
      "type": "function"
    },
    {
      "inputs": [
        {
          "internalType": "address",
          "name": "owner",
          "type": "address"
        }
      ],
      "name": "balanceOf",
      "outputs": [
        {
          "internalType": "uint256",
          "name": "",
          "type": "uint256"
        }
      ],
      "stateMutability": "view",
      "type": "function"
    },
    {
      "inputs": [
        {
          "internalType": "address",
          "name": "",
          "type": "address"
        }
      ],
      "name": "blacklistedAgents",
      "outputs": [
        {
          "internalType": "bool",
          "name": "",
          "type": "bool"
        }
      ],
      "stateMutability": "view",
      "type": "function"
    },
    {
      "inputs": [
        {
          "internalType": "address",
          "name": "",
          "type": "address"
        }
      ],
      "name": "blacklistedValidators",
      "outputs": [
        {
          "internalType": "bool",
          "name": "",
          "type": "bool"
        }
      ],
      "stateMutability": "view",
      "type": "function"
    },
    {
      "inputs": [],
      "name": "clubRootNode",
      "outputs": [
        {
          "internalType": "bytes32",
          "name": "",
          "type": "bytes32"
        }
      ],
      "stateMutability": "view",
      "type": "function"
    },
    {
      "inputs": [],
      "name": "completionReviewPeriod",
      "outputs": [
        {
          "internalType": "uint256",
          "name": "",
          "type": "uint256"
        }
      ],
      "stateMutability": "view",
      "type": "function"
    },
    {
      "inputs": [],
      "name": "configLocked",
      "outputs": [
        {
          "internalType": "bool",
          "name": "",
          "type": "bool"
        }
      ],
      "stateMutability": "view",
      "type": "function"
    },
    {
      "inputs": [],
      "name": "contactEmail",
      "outputs": [
        {
          "internalType": "string",
          "name": "",
          "type": "string"
        }
      ],
      "stateMutability": "view",
      "type": "function"
    },
    {
      "inputs": [],
      "name": "disputeReviewPeriod",
      "outputs": [
        {
          "internalType": "uint256",
          "name": "",
          "type": "uint256"
        }
      ],
      "stateMutability": "view",
      "type": "function"
    },
    {
      "inputs": [],
      "name": "ens",
      "outputs": [
        {
          "internalType": "contract ENS",
          "name": "",
          "type": "address"
        }
      ],
      "stateMutability": "view",
      "type": "function"
    },
    {
      "inputs": [
        {
          "internalType": "uint256",
          "name": "tokenId",
          "type": "uint256"
        }
      ],
      "name": "getApproved",
      "outputs": [
        {
          "internalType": "address",
          "name": "",
          "type": "address"
        }
      ],
      "stateMutability": "view",
      "type": "function"
    },
    {
      "inputs": [
        {
          "internalType": "address",
          "name": "owner",
          "type": "address"
        },
        {
          "internalType": "address",
          "name": "operator",
          "type": "address"
        }
      ],
      "name": "isApprovedForAll",
      "outputs": [
        {
          "internalType": "bool",
          "name": "",
          "type": "bool"
        }
      ],
      "stateMutability": "view",
      "type": "function"
    },
    {
      "inputs": [],
      "name": "jobDurationLimit",
      "outputs": [
        {
          "internalType": "uint256",
          "name": "",
          "type": "uint256"
        }
      ],
      "stateMutability": "view",
      "type": "function"
    },
    {
      "inputs": [
        {
          "internalType": "uint256",
          "name": "",
          "type": "uint256"
        }
      ],
      "name": "listings",
      "outputs": [
        {
          "internalType": "uint256",
          "name": "tokenId",
          "type": "uint256"
        },
        {
          "internalType": "address",
          "name": "seller",
          "type": "address"
        },
        {
          "internalType": "uint256",
          "name": "price",
          "type": "uint256"
        },
        {
          "internalType": "bool",
          "name": "isActive",
          "type": "bool"
        }
      ],
      "stateMutability": "view",
      "type": "function"
    },
    {
      "inputs": [],
      "name": "lockedEscrow",
      "outputs": [
        {
          "internalType": "uint256",
          "name": "",
          "type": "uint256"
        }
      ],
      "stateMutability": "view",
      "type": "function"
    },
    {
      "inputs": [],
      "name": "maxJobPayout",
      "outputs": [
        {
          "internalType": "uint256",
          "name": "",
          "type": "uint256"
        }
      ],
      "stateMutability": "view",
      "type": "function"
    },
    {
      "inputs": [
        {
          "internalType": "address",
          "name": "",
          "type": "address"
        }
      ],
      "name": "moderators",
      "outputs": [
        {
          "internalType": "bool",
          "name": "",
          "type": "bool"
        }
      ],
      "stateMutability": "view",
      "type": "function"
    },
    {
      "inputs": [],
      "name": "name",
      "outputs": [
        {
          "internalType": "string",
          "name": "",
          "type": "string"
        }
      ],
      "stateMutability": "view",
      "type": "function"
    },
    {
      "inputs": [],
      "name": "nameWrapper",
      "outputs": [
        {
          "internalType": "contract NameWrapper",
          "name": "",
          "type": "address"
        }
      ],
      "stateMutability": "view",
      "type": "function"
    },
    {
      "inputs": [],
      "name": "nextJobId",
      "outputs": [
        {
          "internalType": "uint256",
          "name": "",
          "type": "uint256"
        }
      ],
      "stateMutability": "view",
      "type": "function"
    },
    {
      "inputs": [],
      "name": "nextTokenId",
      "outputs": [
        {
          "internalType": "uint256",
          "name": "",
          "type": "uint256"
        }
      ],
      "stateMutability": "view",
      "type": "function"
    },
    {
      "inputs": [],
      "name": "owner",
      "outputs": [
        {
          "internalType": "address",
          "name": "",
          "type": "address"
        }
      ],
      "stateMutability": "view",
      "type": "function"
    },
    {
      "inputs": [
        {
          "internalType": "uint256",
          "name": "tokenId",
          "type": "uint256"
        }
      ],
      "name": "ownerOf",
      "outputs": [
        {
          "internalType": "address",
          "name": "",
          "type": "address"
        }
      ],
      "stateMutability": "view",
      "type": "function"
    },
    {
      "inputs": [],
      "name": "paused",
      "outputs": [
        {
          "internalType": "bool",
          "name": "",
          "type": "bool"
        }
      ],
      "stateMutability": "view",
      "type": "function"
    },
    {
      "inputs": [],
      "name": "premiumReputationThreshold",
      "outputs": [
        {
          "internalType": "uint256",
          "name": "",
          "type": "uint256"
        }
      ],
      "stateMutability": "view",
      "type": "function"
    },
    {
      "inputs": [],
      "name": "renounceOwnership",
      "outputs": [],
      "stateMutability": "nonpayable",
      "type": "function"
    },
    {
      "inputs": [
        {
          "internalType": "address",
          "name": "",
          "type": "address"
        }
      ],
      "name": "reputation",
      "outputs": [
        {
          "internalType": "uint256",
          "name": "",
          "type": "uint256"
        }
      ],
      "stateMutability": "view",
      "type": "function"
    },
    {
      "inputs": [],
      "name": "requiredValidatorApprovals",
      "outputs": [
        {
          "internalType": "uint256",
          "name": "",
          "type": "uint256"
        }
      ],
      "stateMutability": "view",
      "type": "function"
    },
    {
      "inputs": [],
      "name": "requiredValidatorDisapprovals",
      "outputs": [
        {
          "internalType": "uint256",
          "name": "",
          "type": "uint256"
        }
      ],
      "stateMutability": "view",
      "type": "function"
    },
    {
      "inputs": [
        {
          "internalType": "address",
          "name": "from",
          "type": "address"
        },
        {
          "internalType": "address",
          "name": "to",
          "type": "address"
        },
        {
          "internalType": "uint256",
          "name": "tokenId",
          "type": "uint256"
        }
      ],
      "name": "safeTransferFrom",
      "outputs": [],
      "stateMutability": "nonpayable",
      "type": "function"
    },
    {
      "inputs": [
        {
          "internalType": "address",
          "name": "from",
          "type": "address"
        },
        {
          "internalType": "address",
          "name": "to",
          "type": "address"
        },
        {
          "internalType": "uint256",
          "name": "tokenId",
          "type": "uint256"
        },
        {
          "internalType": "bytes",
          "name": "data",
          "type": "bytes"
        }
      ],
      "name": "safeTransferFrom",
      "outputs": [],
      "stateMutability": "nonpayable",
      "type": "function"
    },
    {
      "inputs": [
        {
          "internalType": "address",
          "name": "operator",
          "type": "address"
        },
        {
          "internalType": "bool",
          "name": "approved",
          "type": "bool"
        }
      ],
      "name": "setApprovalForAll",
      "outputs": [],
      "stateMutability": "nonpayable",
      "type": "function"
    },
    {
      "inputs": [
        {
          "internalType": "bytes4",
          "name": "interfaceId",
          "type": "bytes4"
        }
      ],
      "name": "supportsInterface",
      "outputs": [
        {
          "internalType": "bool",
          "name": "",
          "type": "bool"
        }
      ],
      "stateMutability": "view",
      "type": "function"
    },
    {
      "inputs": [],
      "name": "symbol",
      "outputs": [
        {
          "internalType": "string",
          "name": "",
          "type": "string"
        }
      ],
      "stateMutability": "view",
      "type": "function"
    },
    {
      "inputs": [],
      "name": "termsAndConditionsIpfsHash",
      "outputs": [
        {
          "internalType": "string",
          "name": "",
          "type": "string"
        }
      ],
      "stateMutability": "view",
      "type": "function"
    },
    {
      "inputs": [
        {
          "internalType": "address",
          "name": "from",
          "type": "address"
        },
        {
          "internalType": "address",
          "name": "to",
          "type": "address"
        },
        {
          "internalType": "uint256",
          "name": "tokenId",
          "type": "uint256"
        }
      ],
      "name": "transferFrom",
      "outputs": [],
      "stateMutability": "nonpayable",
      "type": "function"
    },
    {
      "inputs": [
        {
          "internalType": "address",
          "name": "newOwner",
          "type": "address"
        }
      ],
      "name": "transferOwnership",
      "outputs": [],
      "stateMutability": "nonpayable",
      "type": "function"
    },
    {
      "inputs": [],
      "name": "validationRewardPercentage",
      "outputs": [
        {
          "internalType": "uint256",
          "name": "",
          "type": "uint256"
        }
      ],
      "stateMutability": "view",
      "type": "function"
    },
    {
      "inputs": [
        {
          "internalType": "address",
          "name": "",
          "type": "address"
        },
        {
          "internalType": "uint256",
          "name": "",
          "type": "uint256"
        }
      ],
      "name": "validatorApprovedJobs",
      "outputs": [
        {
          "internalType": "uint256",
          "name": "",
          "type": "uint256"
        }
      ],
      "stateMutability": "view",
      "type": "function"
    },
    {
      "inputs": [],
      "name": "validatorMerkleRoot",
      "outputs": [
        {
          "internalType": "bytes32",
          "name": "",
          "type": "bytes32"
        }
      ],
      "stateMutability": "view",
      "type": "function"
    },
    {
      "inputs": [],
      "name": "pause",
      "outputs": [],
      "stateMutability": "nonpayable",
      "type": "function"
    },
    {
      "inputs": [],
      "name": "unpause",
      "outputs": [],
      "stateMutability": "nonpayable",
      "type": "function"
    },
    {
      "inputs": [],
      "name": "lockConfiguration",
      "outputs": [],
      "stateMutability": "nonpayable",
      "type": "function"
    },
    {
      "inputs": [
        {
          "internalType": "string",
          "name": "_jobSpecURI",
          "type": "string"
        },
        {
          "internalType": "uint256",
          "name": "_payout",
          "type": "uint256"
        },
        {
          "internalType": "uint256",
          "name": "_duration",
          "type": "uint256"
        },
        {
          "internalType": "string",
          "name": "_details",
          "type": "string"
        }
      ],
      "name": "createJob",
      "outputs": [],
      "stateMutability": "nonpayable",
      "type": "function"
    },
    {
      "inputs": [
        {
          "internalType": "uint256",
          "name": "_jobId",
          "type": "uint256"
        },
        {
          "internalType": "string",
          "name": "subdomain",
          "type": "string"
        },
        {
          "internalType": "bytes32[]",
          "name": "proof",
          "type": "bytes32[]"
        }
      ],
      "name": "applyForJob",
      "outputs": [],
      "stateMutability": "nonpayable",
      "type": "function"
    },
    {
      "inputs": [
        {
          "internalType": "uint256",
          "name": "_jobId",
          "type": "uint256"
        },
        {
          "internalType": "string",
          "name": "_jobCompletionURI",
          "type": "string"
        }
      ],
      "name": "requestJobCompletion",
      "outputs": [],
      "stateMutability": "nonpayable",
      "type": "function"
    },
    {
      "inputs": [
        {
          "internalType": "uint256",
          "name": "_jobId",
          "type": "uint256"
        },
        {
          "internalType": "string",
          "name": "subdomain",
          "type": "string"
        },
        {
          "internalType": "bytes32[]",
          "name": "proof",
          "type": "bytes32[]"
        }
      ],
      "name": "validateJob",
      "outputs": [],
      "stateMutability": "nonpayable",
      "type": "function"
    },
    {
      "inputs": [
        {
          "internalType": "uint256",
          "name": "_jobId",
          "type": "uint256"
        },
        {
          "internalType": "string",
          "name": "subdomain",
          "type": "string"
        },
        {
          "internalType": "bytes32[]",
          "name": "proof",
          "type": "bytes32[]"
        }
      ],
      "name": "disapproveJob",
      "outputs": [],
      "stateMutability": "nonpayable",
      "type": "function"
    },
    {
      "inputs": [
        {
          "internalType": "uint256",
          "name": "_jobId",
          "type": "uint256"
        }
      ],
      "name": "disputeJob",
      "outputs": [],
      "stateMutability": "nonpayable",
      "type": "function"
    },
    {
      "inputs": [
        {
          "internalType": "uint256",
          "name": "_jobId",
          "type": "uint256"
        },
        {
          "internalType": "string",
          "name": "resolution",
          "type": "string"
        }
      ],
      "name": "resolveDispute",
      "outputs": [],
      "stateMutability": "nonpayable",
      "type": "function"
    },
    {
      "inputs": [
        {
          "internalType": "uint256",
          "name": "_jobId",
          "type": "uint256"
        },
        {
          "internalType": "uint8",
          "name": "resolutionCode",
          "type": "uint8"
        },
        {
          "internalType": "string",
          "name": "reason",
          "type": "string"
        }
      ],
      "name": "resolveDisputeWithCode",
      "outputs": [],
      "stateMutability": "nonpayable",
      "type": "function"
    },
    {
      "inputs": [
        {
          "internalType": "uint256",
          "name": "_jobId",
          "type": "uint256"
        },
        {
          "internalType": "bool",
          "name": "employerWins",
          "type": "bool"
        }
      ],
      "name": "resolveStaleDispute",
      "outputs": [],
      "stateMutability": "nonpayable",
      "type": "function"
    },
    {
      "inputs": [
        {
          "internalType": "address",
          "name": "_agent",
          "type": "address"
        },
        {
          "internalType": "bool",
          "name": "_status",
          "type": "bool"
        }
      ],
      "name": "blacklistAgent",
      "outputs": [],
      "stateMutability": "nonpayable",
      "type": "function"
    },
    {
      "inputs": [
        {
          "internalType": "address",
          "name": "_validator",
          "type": "address"
        },
        {
          "internalType": "bool",
          "name": "_status",
          "type": "bool"
        }
      ],
      "name": "blacklistValidator",
      "outputs": [],
      "stateMutability": "nonpayable",
      "type": "function"
    },
    {
      "inputs": [
        {
          "internalType": "uint256",
          "name": "_jobId",
          "type": "uint256"
        }
      ],
      "name": "delistJob",
      "outputs": [],
      "stateMutability": "nonpayable",
      "type": "function"
    },
    {
      "inputs": [
        {
          "internalType": "address",
          "name": "_moderator",
          "type": "address"
        }
      ],
      "name": "addModerator",
      "outputs": [],
      "stateMutability": "nonpayable",
      "type": "function"
    },
    {
      "inputs": [
        {
          "internalType": "address",
          "name": "_moderator",
          "type": "address"
        }
      ],
      "name": "removeModerator",
      "outputs": [],
      "stateMutability": "nonpayable",
      "type": "function"
    },
    {
      "inputs": [
        {
          "internalType": "address",
          "name": "_newTokenAddress",
          "type": "address"
        }
      ],
      "name": "updateAGITokenAddress",
      "outputs": [],
      "stateMutability": "nonpayable",
      "type": "function"
    },
    {
      "inputs": [
        {
          "internalType": "address",
          "name": "_newEnsRegistry",
          "type": "address"
        }
      ],
      "name": "updateEnsRegistry",
      "outputs": [],
      "stateMutability": "nonpayable",
      "type": "function"
    },
    {
      "inputs": [
        {
          "internalType": "address",
          "name": "_newNameWrapper",
          "type": "address"
        }
      ],
      "name": "updateNameWrapper",
      "outputs": [],
      "stateMutability": "nonpayable",
      "type": "function"
    },
    {
      "inputs": [
        {
          "internalType": "bytes32",
          "name": "_clubRootNode",
          "type": "bytes32"
        },
        {
          "internalType": "bytes32",
          "name": "_agentRootNode",
          "type": "bytes32"
        },
        {
          "internalType": "bytes32",
          "name": "_alphaClubRootNode",
          "type": "bytes32"
        },
        {
          "internalType": "bytes32",
          "name": "_alphaAgentRootNode",
          "type": "bytes32"
        }
      ],
      "name": "updateRootNodes",
      "outputs": [],
      "stateMutability": "nonpayable",
      "type": "function"
    },
    {
      "inputs": [
        {
          "internalType": "bytes32",
          "name": "_validatorMerkleRoot",
          "type": "bytes32"
        },
        {
          "internalType": "bytes32",
          "name": "_agentMerkleRoot",
          "type": "bytes32"
        }
      ],
      "name": "updateMerkleRoots",
      "outputs": [],
      "stateMutability": "nonpayable",
      "type": "function"
    },
    {
      "inputs": [
        {
          "internalType": "string",
          "name": "_url",
          "type": "string"
        }
      ],
      "name": "setBaseIpfsUrl",
      "outputs": [],
      "stateMutability": "nonpayable",
      "type": "function"
    },
    {
      "inputs": [
        {
          "internalType": "uint256",
          "name": "_approvals",
          "type": "uint256"
        }
      ],
      "name": "setRequiredValidatorApprovals",
      "outputs": [],
      "stateMutability": "nonpayable",
      "type": "function"
    },
    {
      "inputs": [
        {
          "internalType": "uint256",
          "name": "_disapprovals",
          "type": "uint256"
        }
      ],
      "name": "setRequiredValidatorDisapprovals",
      "outputs": [],
      "stateMutability": "nonpayable",
      "type": "function"
    },
    {
      "inputs": [
        {
          "internalType": "uint256",
          "name": "_threshold",
          "type": "uint256"
        }
      ],
      "name": "setPremiumReputationThreshold",
      "outputs": [],
      "stateMutability": "nonpayable",
      "type": "function"
    },
    {
      "inputs": [
        {
          "internalType": "uint256",
          "name": "_maxPayout",
          "type": "uint256"
        }
      ],
      "name": "setMaxJobPayout",
      "outputs": [],
      "stateMutability": "nonpayable",
      "type": "function"
    },
    {
      "inputs": [
        {
          "internalType": "uint256",
          "name": "_limit",
          "type": "uint256"
        }
      ],
      "name": "setJobDurationLimit",
      "outputs": [],
      "stateMutability": "nonpayable",
      "type": "function"
    },
    {
      "inputs": [
        {
          "internalType": "uint256",
          "name": "_period",
          "type": "uint256"
        }
      ],
      "name": "setCompletionReviewPeriod",
      "outputs": [],
      "stateMutability": "nonpayable",
      "type": "function"
    },
    {
      "inputs": [
        {
          "internalType": "uint256",
          "name": "_period",
          "type": "uint256"
        }
      ],
      "name": "setDisputeReviewPeriod",
      "outputs": [],
      "stateMutability": "nonpayable",
      "type": "function"
    },
    {
      "inputs": [
        {
          "internalType": "uint256",
          "name": "_percentage",
          "type": "uint256"
        }
      ],
      "name": "setAdditionalAgentPayoutPercentage",
      "outputs": [],
      "stateMutability": "nonpayable",
      "type": "function"
    },
    {
      "inputs": [
        {
          "internalType": "string",
          "name": "_hash",
          "type": "string"
        }
      ],
      "name": "updateTermsAndConditionsIpfsHash",
      "outputs": [],
      "stateMutability": "nonpayable",
      "type": "function"
    },
    {
      "inputs": [
        {
          "internalType": "string",
          "name": "_email",
          "type": "string"
        }
      ],
      "name": "updateContactEmail",
      "outputs": [],
      "stateMutability": "nonpayable",
      "type": "function"
    },
    {
      "inputs": [
        {
          "internalType": "string",
          "name": "_text1",
          "type": "string"
        },
        {
          "internalType": "string",
          "name": "_text2",
          "type": "string"
        },
        {
          "internalType": "string",
          "name": "_text3",
          "type": "string"
        }
      ],
      "name": "updateAdditionalTexts",
      "outputs": [],
      "stateMutability": "nonpayable",
      "type": "function"
    },
    {
      "inputs": [
        {
          "internalType": "uint256",
          "name": "jobId",
          "type": "uint256"
        }
      ],
      "name": "getJobCore",
      "outputs": [
        {
          "internalType": "address",
          "name": "employer",
          "type": "address"
        },
        {
          "internalType": "address",
          "name": "assignedAgent",
          "type": "address"
        },
        {
          "internalType": "uint256",
          "name": "payout",
          "type": "uint256"
        },
        {
          "internalType": "uint256",
          "name": "duration",
          "type": "uint256"
        },
        {
          "internalType": "uint256",
          "name": "assignedAt",
          "type": "uint256"
        },
        {
          "internalType": "bool",
          "name": "completed",
          "type": "bool"
        },
        {
          "internalType": "bool",
          "name": "disputed",
          "type": "bool"
        },
        {
          "internalType": "bool",
          "name": "expired",
          "type": "bool"
        },
        {
          "internalType": "uint8",
          "name": "agentPayoutPct",
          "type": "uint8"
        }
      ],
      "stateMutability": "view",
      "type": "function"
    },
    {
      "inputs": [
        {
          "internalType": "uint256",
          "name": "jobId",
          "type": "uint256"
        }
      ],
      "name": "getJobValidation",
      "outputs": [
        {
          "internalType": "bool",
          "name": "completionRequested",
          "type": "bool"
        },
        {
          "internalType": "uint256",
          "name": "validatorApprovals",
          "type": "uint256"
        },
        {
          "internalType": "uint256",
          "name": "validatorDisapprovals",
          "type": "uint256"
        },
        {
          "internalType": "uint256",
          "name": "completionRequestedAt",
          "type": "uint256"
        },
        {
          "internalType": "uint256",
          "name": "disputedAt",
          "type": "uint256"
        }
      ],
      "stateMutability": "view",
      "type": "function"
    },
    {
      "inputs": [
        {
          "internalType": "uint256",
          "name": "jobId",
          "type": "uint256"
        }
      ],
      "name": "getJobURIs",
      "outputs": [
        {
          "internalType": "string",
          "name": "jobSpecURI",
          "type": "string"
        },
        {
          "internalType": "string",
          "name": "jobCompletionURI",
          "type": "string"
        },
        {
          "internalType": "string",
          "name": "ipfsHash",
          "type": "string"
        },
        {
          "internalType": "string",
          "name": "details",
          "type": "string"
        }
      ],
      "stateMutability": "view",
      "type": "function"
    },
    {
      "inputs": [
        {
          "internalType": "uint256",
          "name": "_percentage",
          "type": "uint256"
        }
      ],
      "name": "setValidationRewardPercentage",
      "outputs": [],
      "stateMutability": "nonpayable",
      "type": "function"
    },
    {
      "inputs": [
        {
          "internalType": "uint256",
          "name": "_jobId",
          "type": "uint256"
        }
      ],
      "name": "cancelJob",
      "outputs": [],
      "stateMutability": "nonpayable",
      "type": "function"
    },
    {
      "inputs": [
        {
          "internalType": "uint256",
          "name": "_jobId",
          "type": "uint256"
        }
      ],
      "name": "expireJob",
      "outputs": [],
      "stateMutability": "nonpayable",
      "type": "function"
    },
    {
      "inputs": [
        {
          "internalType": "uint256",
          "name": "_jobId",
          "type": "uint256"
        }
      ],
      "name": "finalizeJob",
      "outputs": [],
      "stateMutability": "nonpayable",
      "type": "function"
    },
    {
      "inputs": [
        {
          "internalType": "uint256",
          "name": "tokenId",
          "type": "uint256"
        }
      ],
      "name": "tokenURI",
      "outputs": [
        {
          "internalType": "string",
          "name": "",
          "type": "string"
        }
      ],
      "stateMutability": "view",
      "type": "function"
    },
    {
      "inputs": [
        {
          "internalType": "uint256",
          "name": "tokenId",
          "type": "uint256"
        },
        {
          "internalType": "uint256",
          "name": "price",
          "type": "uint256"
        }
      ],
      "name": "listNFT",
      "outputs": [],
      "stateMutability": "nonpayable",
      "type": "function"
    },
    {
      "inputs": [
        {
          "internalType": "uint256",
          "name": "tokenId",
          "type": "uint256"
        }
      ],
      "name": "purchaseNFT",
      "outputs": [],
      "stateMutability": "nonpayable",
      "type": "function"
    },
    {
      "inputs": [
        {
          "internalType": "uint256",
          "name": "tokenId",
          "type": "uint256"
        }
      ],
      "name": "delistNFT",
      "outputs": [],
      "stateMutability": "nonpayable",
      "type": "function"
    },
    {
      "inputs": [
        {
          "internalType": "address",
          "name": "validator",
          "type": "address"
        }
      ],
      "name": "addAdditionalValidator",
      "outputs": [],
      "stateMutability": "nonpayable",
      "type": "function"
    },
    {
      "inputs": [
        {
          "internalType": "address",
          "name": "validator",
          "type": "address"
        }
      ],
      "name": "removeAdditionalValidator",
      "outputs": [],
      "stateMutability": "nonpayable",
      "type": "function"
    },
    {
      "inputs": [
        {
          "internalType": "address",
          "name": "agent",
          "type": "address"
        }
      ],
      "name": "addAdditionalAgent",
      "outputs": [],
      "stateMutability": "nonpayable",
      "type": "function"
    },
    {
      "inputs": [
        {
          "internalType": "address",
          "name": "agent",
          "type": "address"
        }
      ],
      "name": "removeAdditionalAgent",
      "outputs": [],
      "stateMutability": "nonpayable",
      "type": "function"
    },
    {
      "inputs": [],
      "name": "withdrawableAGI",
      "outputs": [
        {
          "internalType": "uint256",
          "name": "",
          "type": "uint256"
        }
      ],
      "stateMutability": "view",
      "type": "function"
    },
    {
      "inputs": [
        {
          "internalType": "uint256",
          "name": "amount",
          "type": "uint256"
        }
      ],
      "name": "withdrawAGI",
      "outputs": [],
      "stateMutability": "nonpayable",
      "type": "function"
    },
    {
      "inputs": [
        {
          "internalType": "address",
          "name": "user",
          "type": "address"
        }
      ],
      "name": "canAccessPremiumFeature",
      "outputs": [
        {
          "internalType": "bool",
          "name": "",
          "type": "bool"
        }
      ],
      "stateMutability": "view",
      "type": "function"
    },
    {
      "inputs": [
        {
          "internalType": "uint256",
          "name": "amount",
          "type": "uint256"
        }
      ],
      "name": "contributeToRewardPool",
      "outputs": [],
      "stateMutability": "nonpayable",
      "type": "function"
    },
    {
      "inputs": [
        {
          "internalType": "address",
          "name": "nftAddress",
          "type": "address"
        },
        {
          "internalType": "uint256",
          "name": "payoutPercentage",
          "type": "uint256"
        }
      ],
      "name": "addAGIType",
      "outputs": [],
      "stateMutability": "nonpayable",
      "type": "function"
    },
    {
      "inputs": [
        {
          "internalType": "address",
          "name": "agent",
          "type": "address"
        }
      ],
      "name": "getHighestPayoutPercentage",
      "outputs": [
        {
          "internalType": "uint256",
          "name": "",
          "type": "uint256"
        }
      ],
      "stateMutability": "view",
      "type": "function"
    }
  ],
  "bytecode": "0x60806040526003600b556003600c55612710600d556008600e55690108faa076441d600000600f556298968060105562093a806011556212750060125560326013553480156200004d575f80fd5b5060405162006726380380620067268339810160408190526200007091620003ee565b604051806040016040528060078152602001664147494a6f627360c81b815250604051806040016040528060038152602001622537b160e91b815250620000c6620000c06200015460201b60201c565b62000158565b600180556002805460ff191690556003620000e2838262000577565b506004620000f1828262000577565b5050835160208501516200010a925087918791620001a7565b8151601a55602080830151601c556040830151601b556060830151601d558151601e55810151601f5562000149600b54600c546200020160201b60201c565b505050505062000669565b3390565b5f80546001600160a01b038381166001600160a01b0319831681178455604051919092169283917f8be0079c531659141344cd1fd0a4f28419497f9722a3daafe3b4186f6b6457e09190a35050565b600980546001600160a01b0319166001600160a01b038616179055600a620001d0848262000577565b50602080546001600160a01b039384166001600160a01b031991821617909155602180549290931691161790555050565b6032821180620002115750603281115b80620002285750603262000226828462000643565b115b15620002475760405163baf1e1c760e01b815260040160405180910390fd5b5050565b80516001600160a01b038116811462000262575f80fd5b919050565b634e487b7160e01b5f52604160045260245ffd5b604080519081016001600160401b0381118282101715620002a057620002a062000267565b60405290565b604051601f8201601f191681016001600160401b0381118282101715620002d157620002d162000267565b604052919050565b5f82601f830112620002e9575f80fd5b620002f36200027b565b80604084018581111562000305575f80fd5b845b818110156200032a576200031b816200024b565b84526020938401930162000307565b509095945050505050565b5f82601f83011262000345575f80fd5b604051608081016001600160401b03811182821017156200036a576200036a62000267565b6040528060808401858111156200037f575f80fd5b845b818110156200039b57805183526020928301920162000381565b509195945050505050565b5f82601f830112620003b6575f80fd5b620003c06200027b565b806040840185811115620003d2575f80fd5b845b818110156200032a578051845260209384019301620003d4565b5f805f805f610140868803121562000404575f80fd5b6200040f866200024b565b602087810151919650906001600160401b03808211156200042e575f80fd5b818901915089601f83011262000442575f80fd5b81518181111562000457576200045762000267565b6200046b601f8201601f19168501620002a6565b91508082528a8482850101111562000481575f80fd5b5f5b81811015620004a057838101850151838201860152840162000483565b505f84828401015250809650505050620004be8760408801620002d9565b9250620004cf876080880162000335565b9150620004e1876101008801620003a6565b90509295509295909350565b600181811c908216806200050257607f821691505b6020821081036200052157634e487b7160e01b5f52602260045260245ffd5b50919050565b601f8211156200057257805f5260205f20601f840160051c810160208510156200054e5750805b601f840160051c820191505b818110156200056f575f81556001016200055a565b50505b505050565b81516001600160401b0381111562000593576200059362000267565b620005ab81620005a48454620004ed565b8462000527565b602080601f831160018114620005e1575f8415620005c95750858301515b5f19600386901b1c1916600185901b1785556200063b565b5f85815260208120601f198616915b828110156200061157888601518255948401946001909101908401620005f0565b50858210156200062f57878501515f19600388901b60f8161c191681555b505060018460011b0185555b505050505050565b808201808211156200066357634e487b7160e01b5f52601160045260245ffd5b92915050565b6160af80620006775f395ff3fe608060405234801561000f575f80fd5b50600436106104c2575f3560e01c806301ffc9a7146104c657806306fdde03146104ee578063081812fc14610503578063095ea7b3146105235780630a300b09146105385780630cfbf6c61461054b57806311270a011461055357806314d0f1ba14610566578063150bde031461058857806317a651371461059b5780631ad780bd146105ae5780631aff1d8a146105c25780631b2a6a04146105d85780631dffa3dc146105fb57806323b872dd1461060e5780632634d360146106215780632879967e1461062a57806329dd16991461063d5780632fbf9e0e1461065057806331ae270114610659578063327c12551461066c5780633a0f88ef1461067f5780633a964c1e146106925780633d8c315c146106b35780633e8b1d67146106c65780633f15457f146106e85780633f4ba83a146106fb57806342842e0e1461070357806343947eaa146107165780634997b4681461071f57806349b9d8121461075c5780634a63f630146107645780634e6895101461077757806356a7bfe71461077f578063570990e51461079257806357a48e11146107a557806357d13028146107b8578063591db99f146107cb5780635b0e83c1146107de5780635c975abb146108005780635ce780e51461080b578063634bf46c146108135780636352211e1461081c578063658bb5431461082f578063672d896a1461084257806369c610151461087157806369c92e0e1461088457806369d61557146108a65780636f834c07146108b95780636fe9d712146108cc57806370a08231146108df578063715018a6146108f2578063721bd7a0146108fa57806375794a3c1461090d578063832a153d146109165780638456cb59146109295780638522347714610931578063869b6fad1461093a578063869d785f1461094d57806389166251146109605780638a11a497146109735780638c410fc8146109865780638d1bc00f146109995780638da5cb5b146109ac5780639264ac59146109b457806394383f14146109c757806395d89b41146109da578063a22cb465146109e2578063a5c7af95146109f5578063a6ef379d146109fe578063a8e5fbc014610a07578063ad10e69914610a1a578063b0c2aa5e14610a2d578063b532e4cb14610a36578063b88d4fde14610a49578063b9361b8d14610a5c578063b950780114610a6f578063b9f7945114610a82578063bc76136c14610aa1578063bdb5ca4614610ab4578063bdd61c2014610abd578063c2d0f1bf14610ac6578063c4d71ca114610ad9578063c6b44fe714610ae2578063c87b56dd14610b4d578063cb917b9c14610b60578063cc704d5114610b73578063cf51b45d14610b7b578063cfcee2d014610b8e578063d0e044e914610ba1578063d48884f514610bb4578063d578b4a314610bc7578063d8c9db6e14610bd0578063d93d9beb14610bd9578063db6f77ea14610bec578063dc039e0914610bf5578063dc1018c614610c08578063de74e57b14610c10578063e03352dd14610c7b578063e0a4faaf14610c9d578063e63079e314610ca5578063e6e6020414610cb8578063e72def6114610cc1578063e985e9c514610cd4578063eaf4454314610ce7578063eb7bfaba14610cf0578063f2fde38b14610cf9578063ff54133e14610d0c575b5f80fd5b6104d96104d43660046153e8565b610d1f565b60405190151581526020015b60405180910390f35b6104f6610d70565b6040516104e59190615450565b610516610511366004615462565b610e00565b6040516104e59190615479565b6105366105313660046154a1565b610e25565b005b610536610546366004615462565b610e81565b610536610f0a565b61053661056136600461550f565b610f8d565b6104d961057436600461554d565b60266020525f908152604090205460ff1681565b610536610596366004615462565b610fa2565b6105366105a9366004615462565b61110f565b6021546104d990600160a01b900460ff1681565b6105ca61111c565b6040519081526020016104e5565b6105eb6105e6366004615462565b6111c7565b6040516104e59493929190615568565b610536610609366004615462565b611421565b61053661061c3660046155bf565b6115c0565b6105ca601f5481565b610536610638366004615462565b6115dd565b61053661064b366004615462565b6115ea565b6105ca60135481565b610536610667366004615462565b61165b565b61053661067a3660046156a1565b611674565b61053661068d366004615743565b6117d8565b6106a56106a0366004615462565b61180a565b6040516104e592919061577a565b6105366106c136600461550f565b611840565b6104d96106d436600461554d565b60286020525f908152604090205460ff1681565b602054610516906001600160a01b031681565b610536611855565b6105366107113660046155bf565b611867565b6105ca600d5481565b61073261072d366004615462565b611881565b6040805195151586526020860194909452928401919091526060830152608082015260a0016104e5565b6104f66118c4565b6105366107723660046156a1565b611950565b6104f6611c75565b61053661078d366004615462565b611c82565b6105366107a0366004615793565b611d20565b6105366107b3366004615462565b611d70565b6105366107c6366004615462565b611d89565b6105366107d93660046157b3565b611d96565b6104d96107ec36600461554d565b602b6020525f908152604090205460ff1681565b60025460ff166104d9565b6105ca603281565b6105ca601b5481565b61051661082a366004615462565b611e5a565b600954610516906001600160a01b031681565b6104d961085036600461554d565b600d546001600160a01b039091165f90815260256020526040902054101590565b61053661087f36600461554d565b611e79565b6104d961089236600461554d565b602c6020525f908152604090205460ff1681565b6105366108b4366004615462565b611f23565b6105366108c7366004615462565b611fde565b6105ca6108da3660046154a1565b612050565b6105ca6108ed36600461554d565b61207b565b6105366120a9565b610536610908366004615743565b6120ba565b6105ca60235481565b610536610924366004615462565b6120ec565b6105366121e9565b6105ca60115481565b6105366109483660046154a1565b6121f9565b61053661095b36600461554d565b612372565b61053661096e36600461554d565b61239a565b61053661098136600461554d565b61246b565b61053661099436600461554d565b61253c565b6105366109a73660046157e2565b612567565b61051661271f565b6105366109c2366004615462565b61272d565b6105366109d5366004615793565b61279f565b6104f66128a0565b6105366109f0366004615743565b6128af565b6105ca601c5481565b6105ca600f5481565b602154610516906001600160a01b031681565b6105ca610a2836600461554d565b6128be565b6105ca60225481565b610536610a4436600461554d565b6129c4565b610536610a57366004615829565b6129ef565b610536610a6a3660046158a3565b612a0d565b610536610a7d36600461554d565b612a8d565b6105ca610a9036600461554d565b60256020525f908152604090205481565b610536610aaf366004615462565b612ab5565b6105ca601e5481565b6105ca600e5481565b610536610ad43660046158ff565b612c15565b6105ca600c5481565b610af5610af0366004615462565b612c4f565b604080516001600160a01b039a8b1681529990981660208a01529688019590955260608701939093526080860191909152151560a0850152151560c0840152151560e083015260ff16610100820152610120016104e5565b6104f6610b5b366004615462565b612d06565b610536610b6e366004615462565b612dac565b6104f6612e3a565b610536610b893660046157e2565b612e47565b610536610b9c36600461554d565b612f42565b610536610baf366004615991565b612f6d565b610536610bc23660046156a1565b6130dc565b6105ca601a5481565b6105ca60145481565b610536610be7366004615462565b6133d0565b6105ca60125481565b610536610c0336600461550f565b6134f4565b6104f6613509565b610c51610c1e366004615462565b602a6020525f9081526040902080546001820154600283015460039093015491926001600160a01b039091169160ff1684565b604080519485526001600160a01b03909316602085015291830152151560608201526080016104e5565b6104d9610c8936600461554d565b60276020525f908152604090205460ff1681565b6104f6613516565b610536610cb3366004615462565b613523565b6105ca600b5481565b610536610ccf36600461554d565b613687565b6104d9610ce23660046159b4565b6136af565b6105ca60105481565b6105ca601d5481565b610536610d0736600461554d565b6136dc565b610536610d1a3660046159e0565b6136ff565b5f6001600160e01b031982166380ac58cd60e01b1480610d4f57506001600160e01b03198216635b5e139f60e01b145b80610d6a57506301ffc9a760e01b6001600160e01b03198316145b92915050565b606060038054610d7f90615a45565b80601f0160208091040260200160405190810160405280929190818152602001828054610dab90615a45565b8015610df65780601f10610dcd57610100808354040283529160200191610df6565b820191905f5260205f20905b815481529060010190602001808311610dd957829003601f168201915b5050505050905090565b5f610e0a82613822565b505f908152600760205260409020546001600160a01b031690565b5f610e2f82611e5a565b9050806001600160a01b0316836001600160a01b031603610e4e575f80fd5b336001600160a01b0382161480610e6a5750610e6a81336136af565b610e72575f80fd5b610e7c8383613833565b505050565b610e896138a0565b610e916138af565b805f03610eb157604051630e52390960e41b815260040160405180910390fd5b600954610ec9906001600160a01b03163330846138c4565b60405181815233907fb0d9a40279379a895ddbe9f737c29b774953778208ee2619ce9dec43f54ea85a9060200160405180910390a2610f0760018055565b50565b610f126139f1565b602154600160a01b900460ff1615610f3c5760405162b5d7e160e81b815260040160405180910390fd5b6021805460ff60a01b1916600160a01b17905560405133907f2c1448360446efb991d8a0e7b4798c9359b8be6c958a9948dbc231fc5a61ccb490610f839042815260200190565b60405180910390a2565b610f956139f1565b6015610e7c828483615acf565b610faa6138a0565b610fb26138af565b5f818152602a60205260409020600381015460ff16610fe45760405163baf3f0f760e01b815260040160405180910390fd5b600181015460028201546001600160a01b0390911690816110185760405163baf3f0f760e01b815260040160405180910390fd5b336001600160a01b038316036110415760405163ea8e4eb560e01b815260040160405180910390fd5b805f0361106157604051630e52390960e41b815260040160405180910390fd5b816001600160a01b031661107485611e5a565b6001600160a01b03161461109b5760405163baf3f0f760e01b815260040160405180910390fd5b60038301805460ff191690556110b2338383613a0c565b6110cc82338660405180602001604052805f815250613a24565b604051818152339085907fad546cba5af920bc2c64678bbd69f3d8965ac26d1b82f7ebf6f098aaa83352829060200160405180910390a3505050610f0760018055565b6111176139f1565b601055565b6009546040516370a0823160e01b81525f9182916001600160a01b03909116906370a0823190611150903090600401615479565b602060405180830381865afa15801561116b573d5f803e3d5ffd5b505050506040513d601f19601f8201168201806040525081019061118f9190615b83565b90506014548110156111b4576040516324cf566d60e11b815260040160405180910390fd5b6014546111c19082615bae565b91505090565b6060806060805f6111d786613a43565b905080600201816003018260040183600d018380546111f590615a45565b80601f016020809104026020016040519081016040528092919081815260200182805461122190615a45565b801561126c5780601f106112435761010080835404028352916020019161126c565b820191905f5260205f20905b81548152906001019060200180831161124f57829003601f168201915b5050505050935082805461127f90615a45565b80601f01602080910402602001604051908101604052809291908181526020018280546112ab90615a45565b80156112f65780601f106112cd576101008083540402835291602001916112f6565b820191905f5260205f20905b8154815290600101906020018083116112d957829003601f168201915b5050505050925081805461130990615a45565b80601f016020809104026020016040519081016040528092919081815260200182805461133590615a45565b80156113805780601f1061135757610100808354040283529160200191611380565b820191905f5260205f20905b81548152906001019060200180831161136357829003601f168201915b5050505050915080805461139390615a45565b80601f01602080910402602001604051908101604052809291908181526020018280546113bf90615a45565b801561140a5780601f106113e15761010080835404028352916020019161140a565b820191905f5260205f20905b8154815290600101906020018083116113ed57829003601f168201915b505050505090509450945094509450509193509193565b6114296138af565b5f61143382613a43565b60018101549091506001600160a01b031633146114635760405163ea8e4eb560e01b815260040160405180910390fd5b600981015460ff1680611482575060078101546001600160a01b031615155b156114a05760405163baf3f0f760e01b815260040160405180910390fd5b6114a981613a80565b600181015460058201546114c6916001600160a01b031690613ab9565b5f8281526024602052604081208181556001810180546001600160a01b0319169055906114f6600283018261536d565b611503600383015f61536d565b611510600483015f61536d565b5f60058301819055600683018190556007830180546001600160a01b03191690556008830181905560098301805461ffff19169055600a8301819055600b8301819055600c8301805460ff1916905561156d90600d84019061536d565b61157a601083015f6153a4565b505f601182018190556012820155601301805462ffffff191690556040518281525f80516020616063833981519152906020015b60405180910390a150610f0760018055565b6115ca3382613ad0565b6115d2575f80fd5b610e7c838383613b2e565b6115e56139f1565b600d55565b6115f26139f1565b5f81118015611602575060648111155b61161f57604051630e52390960e41b815260040160405180910390fd5b5f611628613c05565b9050611635826064615bae565b81111561165557604051630e52390960e41b815260040160405180910390fd5b50600e55565b6116636139f1565b61166f600b5482613c54565b600c55565b61167c6138a0565b6116846138af565b5f61168e85613a43565b60078101549091506001600160a01b0316156116bd5760405163baf3f0f760e01b815260040160405180910390fd5b335f908152602b602052604090205460ff16156116ed576040516309550c7760e01b815260040160405180910390fd5b335f9081526028602052604090205460ff1680611711575061171133858585613c95565b61172e5760405163ea8e4eb560e01b815260040160405180910390fd5b5f611738336128be565b9050805f0361175a576040516303a0738560e11b815260040160405180910390fd5b60138201805461ff00191661010060ff841602179055600782018054336001600160a01b031990911681179091554260088401556040517fffa837d183240a5f25cbd643a8eade702c0c9c3e186c59c7d929e4f1a3438d86916117bf91899190615bc1565b60405180910390a150506117d260018055565b50505050565b6117e06139f1565b6001600160a01b03919091165f908152602b60205260409020805460ff1916911515919091179055565b602d8181548110611819575f80fd5b5f918252602090912060029091020180546001909101546001600160a01b03909116915082565b6118486139f1565b600a610e7c828483615acf565b61185d6139f1565b611865613d9c565b565b610e7c83838360405180602001604052805f8152506129ef565b5f805f805f8061189087613a43565b6009810154600a820154600b830154601184015460129094015461010090930460ff169b919a509850919650945092505050565b601980546118d190615a45565b80601f01602080910402602001604051908101604052809291908181526020018280546118fd90615a45565b80156119485780601f1061191f57610100808354040283529160200191611948565b820191905f5260205f20905b81548152906001019060200180831161192b57829003601f168201915b505050505081565b6119586138a0565b6119606138af565b5f61196a85613a43565b600c81015490915060ff16156119935760405163baf3f0f760e01b815260040160405180910390fd5b60078101546001600160a01b03166119be5760405163baf3f0f760e01b815260040160405180910390fd5b600981015460ff16156119e45760405163baf3f0f760e01b815260040160405180910390fd5b601381015460ff1615611a0a5760405163baf3f0f760e01b815260040160405180910390fd5b335f908152602c602052604090205460ff1615611a3a576040516309550c7760e01b815260040160405180910390fd5b335f9081526027602052604090205460ff1680611a5e5750611a5e33858585613de8565b611a7b5760405163ea8e4eb560e01b815260040160405180910390fd5b6009810154610100900460ff16611aa55760405163baf3f0f760e01b815260040160405180910390fd5b611b38816003018054611ab790615a45565b80601f0160208091040260200160405190810160405280929190818152602001828054611ae390615a45565b8015611b2e5780601f10611b0557610100808354040283529160200191611b2e565b820191905f5260205f20905b815481529060010190602001808311611b1157829003601f168201915b5050505050613e60565b335f908152600e8201602052604090205460ff1615611b6a5760405163baf3f0f760e01b815260040160405180910390fd5b335f908152600f8201602052604090205460ff1615611b9c5760405163baf3f0f760e01b815260040160405180910390fd5b6010810154611baa90613f28565b600a81018054905f611bbb83615bd8565b9091555050335f818152600e830160209081526040808320805460ff1916600190811790915560108601805480830182559085528385200180546001600160a01b03191686179055848452602983528184208054918201815584529190922001879055517fd35288599f316272f4e87c5a053664f1529adc92bb2196f32a619c1d6581bc8a91611c4d91889190615bc1565b60405180910390a1600b5481600a015410611c6b57611c6b85613f49565b506117d260018055565b601680546118d190615a45565b611c8a6139f1565b5f81118015611c9a575060648111155b611cb757604051630e52390960e41b815260040160405180910390fd5b600e54611cc5906064615bae565b811115611ce557604051630e52390960e41b815260040160405180910390fd5b60138190556040518181527fe8823db748a1818e2f8273ddfe47625bbf5db5124db766ed6a38a6831cd9211d9060200160405180910390a150565b611d286139f1565b601e829055601f8190556040517f95a640352dcd90c4adfb94305e024b7754d086930a98dd85b8807e6b10de321390611d649084908490615bf0565b60405180910390a15050565b611d786139f1565b611d8481600c54613c54565b600b55565b611d916139f1565b600f55565b611d9e6139f1565b602154600160a01b900460ff1615611dc85760405162b5d7e160e81b815260040160405180910390fd5b602254151580611dd9575060145415155b15611df75760405163baf3f0f760e01b815260040160405180910390fd5b601a849055601c839055601b829055601d8190556040805185815260208101859052908101839052606081018290527f4929f4d95bd2c9f3bb1c3fb68632672edefc25df8c7d23dca411ec0aef84ae99906080015b60405180910390a150505050565b5f80611e658361404a565b90506001600160a01b038116610d6a575f80fd5b611e816139f1565b602154600160a01b900460ff1615611eab5760405162b5d7e160e81b815260040160405180910390fd5b6001600160a01b038116611ed257604051630e52390960e41b815260040160405180910390fd5b602254151580611ee3575060145415155b15611f015760405163baf3f0f760e01b815260040160405180910390fd5b600980546001600160a01b0319166001600160a01b0392909216919091179055565b611f2b6139f1565b611f33614064565b611f3b6138af565b805f03611f5b57604051630e52390960e41b815260040160405180910390fd5b5f611f6461111c565b905080821115611f87576040516302c6f54760e21b815260040160405180910390fd5b611f913383613ab9565b337f1ca5eefe3bbabad1198079684ca2d010e1ef9f9e4c1a9ed65d47161294b2368e83611fbe8185615bae565b604051611fcc929190615bf0565b60405180910390a250610f0760018055565b611fe66139f1565b5f81118015611ff957506301e133808111155b61201657604051630e52390960e41b815260040160405180910390fd5b60128054908290556040517fb6973300f97c00fec1f47cf79e70231bb71159693b0312ed15f99fb1211997d390611d649083908590615bf0565b6029602052815f5260405f208181548110612069575f80fd5b905f5260205f20015f91509150505481565b5f6001600160a01b03821661208e575f80fd5b506001600160a01b03165f9081526006602052604090205490565b6120b16139f1565b6118655f614072565b6120c26139f1565b6001600160a01b03919091165f908152602c60205260409020805460ff1916911515919091179055565b6120f46138af565b5f6120fe82613a43565b9050612109816140c1565b612112816141a4565b1561216d5761212082613f49565b600781015460018083015460058401546040515f805160206160438339815191529461215f9488946001600160a01b0392831694921692909190615bfe565b60405180910390a1506121e0565b5f612177826141c0565b9050801561218d5761218883613f49565b612196565b612196826141f3565b6007820154600183015460058401546040515f80516020616043833981519152936121d59388936001600160a01b039283169391909216918791615bfe565b60405180910390a150505b610f0760018055565b6121f16139f1565b61186561423c565b6122016139f1565b6001600160a01b0382161580159061221857505f81115b8015612225575060648111155b61224257604051630e52390960e41b815260040160405180910390fd5b5f8061224e8484614279565b91509150600e5460646122619190615bae565b81111561228157604051630e52390960e41b815260040160405180910390fd5b811561229657612291848461430c565b612329565b604080518082019091526001600160a01b03858116825260208201858152602d80546001810182555f9190915292517f4a2cc91ee622da3bc833a54c37ffcb6f3ec23b7793efc5eaf5e71b7b406c5c06600290940293840180546001600160a01b0319169190931617909155517f4a2cc91ee622da3bc833a54c37ffcb6f3ec23b7793efc5eaf5e71b7b406c5c07909101555b836001600160a01b03167f6710982b4fdc516f2b90034e47376e242d49ed991f1d35d2166a3c617e4bf3638460405161236491815260200190565b60405180910390a250505050565b61237a6139f1565b6001600160a01b03165f908152602660205260409020805460ff19169055565b6123a26139f1565b602154600160a01b900460ff16156123cc5760405162b5d7e160e81b815260040160405180910390fd5b6001600160a01b0381166123f357604051630e52390960e41b815260040160405180910390fd5b602254151580612404575060145415155b156124225760405163baf3f0f760e01b815260040160405180910390fd5b602080546001600160a01b0319166001600160a01b0383169081179091556040517f165a8a5993cba68e2842d5ca745fcd1de2e6cc68e77ad8d15f9f6059cac39944905f90a250565b6124736139f1565b602154600160a01b900460ff161561249d5760405162b5d7e160e81b815260040160405180910390fd5b6001600160a01b0381166124c457604051630e52390960e41b815260040160405180910390fd5b6022541515806124d5575060145415155b156124f35760405163baf3f0f760e01b815260040160405180910390fd5b602180546001600160a01b0319166001600160a01b0383169081179091556040517fdf78aa329778ce49fa7c6f87eb9b352f32e53564303c64e9b36e8e191b44e479905f90a250565b6125446139f1565b6001600160a01b03165f908152602760205260409020805460ff19166001179055565b5f61257184613a43565b90505f82900361259457604051630e52390960e41b815260040160405180910390fd5b60025460ff1615806125aa5750600c81015460ff165b6125b2575f80fd5b60078101546001600160a01b031633146125df5760405163ea8e4eb560e01b815260040160405180910390fd5b600981015460ff16806125f65750601381015460ff165b156126145760405163baf3f0f760e01b815260040160405180910390fd5b600c81015460ff1615801561263b5750806006015481600801546126389190615c2d565b42115b156126595760405163baf3f0f760e01b815260040160405180910390fd5b6009810154610100900460ff16156126845760405163baf3f0f760e01b815260040160405180910390fd5b6126c283838080601f0160208091040260200160405190810160405280939291908181526020018383808284375f92019190915250613e6092505050565b600381016126d1838583615acf565b5060098101805461ff0019166101001790554260118201556040517fb36a567aa0271fd8eb190aa32dd1ed772d17734707f4e8b585a593f3fed31f0390611e4c908690339087908790615c40565b5f546001600160a01b031690565b6127356139f1565b5f8111801561274857506301e133808111155b61276557604051630e52390960e41b815260040160405180910390fd5b60118054908290556040517fdcd2060c090c1f79263900707d221f47a702b67781d0a9e52af902f04413545d90611d649083908590615bf0565b6127a76138a0565b336127b183611e5a565b6001600160a01b0316146127d85760405163ea8e4eb560e01b815260040160405180910390fd5b805f036127f857604051630e52390960e41b815260040160405180910390fd5b604080516080810182528381523360208083018281528385018681526001606086018181525f8a8152602a865288902096518755925190860180546001600160a01b0319166001600160a01b03909216919091179055516002850155516003909301805460ff191693151593909317909255915183815284917f5f9c03de076f5063cd3ebcfe8ef7aa8af378e4b35a83c77ba9777e97083879a2910160405180910390a35050565b606060048054610d7f90615a45565b6128ba338383614387565b5050565b5f80805b602d548110156129bd575f602d82815481106128e0576128e0615c86565b5f9182526020909120600290910201546040516370a0823160e01b81526001600160a01b03909116906370a082319061291d908890600401615479565b602060405180830381865afa158015612938573d5f803e3d5ffd5b505050506040513d601f19601f8201168201806040525081019061295c9190615b83565b11801561298a575081602d828154811061297857612978615c86565b905f5260205f20906002020160010154115b156129b557602d81815481106129a2576129a2615c86565b905f5260205f2090600202016001015491505b6001016128c2565b5092915050565b6129cc6139f1565b6001600160a01b03165f908152602660205260409020805460ff19166001179055565b6129f93383613ad0565b612a01575f80fd5b6117d284848484613a24565b335f9081526026602052604090205460ff16612a3c576040516375522eb560e11b815260040160405180910390fd5b612a446138af565b612a84848484848080601f0160208091040260200160405190810160405280939291908181526020018383808284375f9201919091525061441192505050565b6117d260018055565b612a956139f1565b6001600160a01b03165f908152602760205260409020805460ff19169055565b612abd6138af565b5f612ac782613a43565b600981015490915060ff1680612ae15750601381015460ff165b80612af05750600c81015460ff165b80612b0457506009810154610100900460ff165b15612b225760405163baf3f0f760e01b815260040160405180910390fd5b60078101546001600160a01b0316612b4d5760405163baf3f0f760e01b815260040160405180910390fd5b80600601548160080154612b619190615c2d565b4211612b805760405163baf3f0f760e01b815260040160405180910390fd5b60138101805460ff19166001179055612b9881613a80565b60018101546005820154612bb5916001600160a01b031690613ab9565b600181015460078201546005830154604080518681526001600160a01b039485166020820152939092169183019190915260608201527fe7a9ca0db7a8c0fcef0e629a278cb838c41bf249e750bda05ceb3fd00567cbd8906080016115ae565b612c1d6139f1565b6017612c2a868883615acf565b506018612c38848683615acf565b506019612c46828483615acf565b50505050505050565b5f805f805f805f805f80612c628b613a43565b9050806001015f9054906101000a90046001600160a01b0316816007015f9054906101000a90046001600160a01b0316826005015483600601548460080154856009015f9054906101000a900460ff1686600c015f9054906101000a900460ff16876013015f9054906101000a900460ff168860130160019054906101000a900460ff16995099509950995099509950995099509950509193959799909294969850565b6060612d1182613822565b5f828152602e602052604090208054612d2990615a45565b80601f0160208091040260200160405190810160405280929190818152602001828054612d5590615a45565b8015612da05780601f10612d7757610100808354040283529160200191612da0565b820191905f5260205f20905b815481529060010190602001808311612d8357829003601f168201915b50505050509050919050565b612db46138a0565b5f818152602a60205260409020600381015460ff161580612de2575060018101546001600160a01b03163314155b15612e005760405163ea8e4eb560e01b815260040160405180910390fd5b60038101805460ff1916905560405182907fc0c55a6edead4433d18cb1e287a0a20a2fa003a6f483bc9823d2e504d70d1c67905f90a25050565b601580546118d190615a45565b335f9081526026602052604090205460ff16612e76576040516375522eb560e11b815260040160405180910390fd5b612e7e6138af565b5f808383604051612e90929190615c9a565b60405190819003902090507f9a6b5722c0aa702d22ee05bb386da0a461e6797192f4b4682decd01a1da4af8f8101612ecb5760019150612ef7565b7f11ce160c6957a47ae8392f84fd06fb7a75260cba9ade412300fd33eb18a357328101612ef757600291505b612f37858386868080601f0160208091040260200160405190810160405280939291908181526020018383808284375f9201919091525061441192505050565b5050610e7c60018055565b612f4a6139f1565b6001600160a01b03165f908152602860205260409020805460ff19166001179055565b612f756139f1565b612f7d614064565b612f856138af565b5f612f8f83613a43565b600c81015490915060ff161580612faa5750601381015460ff165b15612fc85760405163baf3f0f760e01b815260040160405180910390fd5b80601201545f03612fec5760405163baf3f0f760e01b815260040160405180910390fd5b6012548160120154612ffe9190615c2d565b421161301d5760405163baf3f0f760e01b815260040160405180910390fd5b5f8051602061600383398151915260405161305b906020808252600f908201526e111254d415551157d512535153d555608a1b604082015260600190565b60405180910390a1811561307757613072816141f3565b613092565b600c8101805460ff191690555f601282015561309283613f49565b604080518481523360208201528315158183015290517fe58209c42e9c552f87aa64ce3d4cc67685667aea70fcf13269641272dbc7e8be9181900360600190a1506128ba60018055565b6130e46138a0565b6130ec6138af565b5f6130f685613a43565b600c81015490915060ff161561311f5760405163baf3f0f760e01b815260040160405180910390fd5b60078101546001600160a01b031661314a5760405163baf3f0f760e01b815260040160405180910390fd5b600981015460ff16156131705760405163baf3f0f760e01b815260040160405180910390fd5b601381015460ff16156131965760405163baf3f0f760e01b815260040160405180910390fd5b335f908152602c602052604090205460ff16156131c6576040516309550c7760e01b815260040160405180910390fd5b335f9081526027602052604090205460ff16806131ea57506131ea33858585613de8565b6132075760405163ea8e4eb560e01b815260040160405180910390fd5b6009810154610100900460ff166132315760405163baf3f0f760e01b815260040160405180910390fd5b613243816003018054611ab790615a45565b335f908152600f8201602052604090205460ff16156132755760405163baf3f0f760e01b815260040160405180910390fd5b335f908152600e8201602052604090205460ff16156132a75760405163baf3f0f760e01b815260040160405180910390fd5b60108101546132b590613f28565b600b81018054905f6132c683615bd8565b9091555050335f818152600f830160209081526040808320805460ff1916600190811790915560108601805480830182559085528385200180546001600160a01b03191686179055848452602983528184208054918201815584529190922001879055517f04c356fd9aea5c16b5773af14ed45489db72d155d3b2da30979810d4db7787b39161335891889190615bc1565b60405180910390a1600c5481600b015410611c6b57600c8101805460ff1916600117905560128101545f0361338e574260128201555b7e7a04c23fac86b9f00290f402ccec895256f0b46ad331c80038b783acbfe41985336040516133be929190615bc1565b60405180910390a1506117d260018055565b6133d86138a0565b6133e06138af565b5f6133ea82613a43565b600c81015490915060ff16806134045750600981015460ff165b806134135750601381015460ff165b156134315760405163baf3f0f760e01b815260040160405180910390fd5b60078101546001600160a01b0316331480159061345b575060018101546001600160a01b03163314155b156134795760405163ea8e4eb560e01b815260040160405180910390fd5b6009810154610100900460ff166134a35760405163baf3f0f760e01b815260040160405180910390fd5b600c8101805460ff1916600117905560128101545f036134c4574260128201555b7e7a04c23fac86b9f00290f402ccec895256f0b46ad331c80038b783acbfe41982336040516115ae929190615bc1565b6134fc6139f1565b6016610e7c828483615acf565b601880546118d190615a45565b601780546118d190615a45565b61352b6139f1565b5f61353582613a43565b600981015490915060ff1680613557575060078101546001600160a01b031615155b156135755760405163baf3f0f760e01b815260040160405180910390fd5b61357e81613a80565b6001810154600582015461359b916001600160a01b031690613ab9565b5f8281526024602052604081208181556001810180546001600160a01b0319169055906135cb600283018261536d565b6135d8600383015f61536d565b6135e5600483015f61536d565b5f60058301819055600683018190556007830180546001600160a01b03191690556008830181905560098301805461ffff19169055600a8301819055600b8301819055600c8301805460ff1916905561364290600d84019061536d565b61364f601083015f6153a4565b505f601182018190556012820155601301805462ffffff191690556040518281525f8051602061606383398151915290602001611d64565b61368f6139f1565b6001600160a01b03165f908152602860205260409020805460ff19169055565b6001600160a01b039182165f90815260086020908152604080832093909416825291909152205460ff1690565b6136e46139f1565b6001600160a01b0381166136f6575f80fd5b610f0781614072565b6137076138a0565b61370f6138af565b5f8311801561371d57505f82115b801561372b5750600f548311155b801561373957506010548211155b61375657604051630e52390960e41b815260040160405180910390fd5b61375f84613e60565b6022805460018082019092555f81815260246020526040902081815591820180546001600160a01b03191633179055906002810161379d8782615ca9565b50600481016137ac8782615ca9565b506005810185905560068101849055600d81016137c98482615ca9565b506009546137e2906001600160a01b03163330886138c4565b60148054860190556040517f2fb10ebe19759be9194a8c8adaa5a5c6599dcfedffb4172097939f4aa5b593ff906117bf9084908990899089908990615d5f565b61382b8161459e565b610f07575f80fd5b5f81815260076020526040902080546001600160a01b0319166001600160a01b038416908117909155819061386782611e5a565b6001600160a01b03167f8c5be1e5ebec7d5bd14f71427d1e84f3dd0314c0f7b2291e5b200ac8c7c3b92560405160405180910390a45050565b60025460ff1615611865575f80fd5b6002600154036138bd575f80fd5b6002600155565b80156117d2576040516370a0823160e01b81525f906001600160a01b038616906370a08231906138f8908690600401615479565b602060405180830381865afa158015613913573d5f803e3d5ffd5b505050506040513d601f19601f820116820180604052508101906139379190615b83565b9050613945858585856145ba565b6040516370a0823160e01b81525f906001600160a01b038716906370a0823190613973908790600401615479565b602060405180830381865afa15801561398e573d5f803e3d5ffd5b505050506040513d601f19601f820116820180604052508101906139b29190615b83565b9050818110806139cb5750826139c88383615bae565b14155b156139e9576040516312171d8360e31b815260040160405180910390fd5b505050505050565b336139fa61271f565b6001600160a01b031614611865575f80fd5b600954610e7c906001600160a01b03168484846145ba565b613a2f848484613b2e565b613a3b8484848461462b565b6117d2575f80fd5b5f81815260246020526040902060018101546001600160a01b0316613a7b5760405163c0a8563160e01b815260040160405180910390fd5b919050565b601381015462010000900460ff1615613a965750565b60138101805462ff00001916620100001790556005015460148054919091039055565b6009546128ba906001600160a01b03168383614711565b5f80613adb83611e5a565b9050806001600160a01b0316846001600160a01b03161480613b025750613b0281856136af565b80613b265750836001600160a01b0316613b1b84610e00565b6001600160a01b0316145b949350505050565b826001600160a01b0316613b4182611e5a565b6001600160a01b031614613b53575f80fd5b6001600160a01b038216613b65575f80fd5b826001600160a01b0316613b7882611e5a565b6001600160a01b031614613b8a575f80fd5b5f81815260076020908152604080832080546001600160a01b03199081169091556001600160a01b038781168086526006855283862080545f1901905590871680865283862080546001019055868652600590945282852080549092168417909155905184935f8051602061602383398151915291a4505050565b5f80805b602d54811015613c4e575f602d8281548110613c2757613c27615c86565b905f5260205f20906002020160010154905082811115613c45578092505b50600101613c09565b50919050565b6032821180613c635750603281115b80613c7757506032613c758284615c2d565b115b156128ba5760405163baf1e1c760e01b815260040160405180910390fd5b5f613cff601f5486604051602001613cad9190615da1565b604051602081830303815290604052805190602001208585808060200260200160405190810160405280939291908181526020018383602002808284375f9201919091525092949392505061473c9050565b15613d32575f805160206160838339815191528585604051613d22929190615db9565b60405180910390a1506001613b26565b613d3f8585601c54614753565b15613d62575f805160206160838339815191528585604051613d22929190615db9565b613d6f8585601d54614753565b15613d92575f805160206160838339815191528585604051613d22929190615db9565b505f949350505050565b613da4614064565b6002805460ff191690557f5db9ee0a495bf2e6ff9c91a7834c1ba4fdd244a5e8aa4e537bd38aeae4b073aa335b604051613dde9190615479565b60405180910390a1565b5f613e00601e5486604051602001613cad9190615da1565b15613e23575f805160206160838339815191528585604051613d22929190615db9565b613e308585601a54614753565b15613e53575f805160206160838339815191528585604051613d22929190615db9565b613d6f8585601b54614753565b805181905f03613e8357604051630e52390960e41b815260040160405180910390fd5b5f5b8151811015610e7c575f828281518110613ea157613ea1615c86565b01602001516001600160f81b0319169050600160fd1b811480613ed15750600960f81b6001600160f81b03198216145b80613ee95750600560f91b6001600160f81b03198216145b80613f015750600d60f81b6001600160f81b03198216145b15613f1f57604051630e52390960e41b815260040160405180910390fd5b50600101613e85565b60328110610f075760405163eac8fde560e01b815260040160405180910390fd5b5f613f5382613a43565b9050613f5e816147ce565b613f6781614890565b60098101805460ff19908116600117909155600c820180549091169055613f8d81613a80565b5f613f9782614987565b9050613fa2826149c5565b613fac8282614a27565b613fb582614ae8565b6007820154604080518581526001600160a01b03909216602083015281018290527f4dbba472101e9f148a3a5ecbe793f0ee16a7efe4bf3f8cbfab5330e1642ef9559060600160405180910390a160078201546001600160a01b03165f81815260256020526040908190205490515f80516020615fe38339815191529261403d92909161577a565b60405180910390a1505050565b5f908152600560205260409020546001600160a01b031690565b60025460ff16611865575f80fd5b5f80546001600160a01b038381166001600160a01b0319831681178455604051919092169283917f8be0079c531659141344cd1fd0a4f28419497f9722a3daafe3b4186f6b6457e09190a35050565b600981015460ff16806140d85750601381015460ff165b806140e75750600c81015460ff165b156141055760405163baf3f0f760e01b815260040160405180910390fd5b6009810154610100900460ff16158061412057506011810154155b1561413e5760405163baf3f0f760e01b815260040160405180910390fd5b60115481601101546141509190615c2d565b421161416f5760405163baf3f0f760e01b815260040160405180910390fd5b5f600c541180156141865750600c5481600b015410155b15610f075760405163baf3f0f760e01b815260040160405180910390fd5b5f80600b54118015610d6a575050600b54600a90910154101590565b5f81600a01545f1480156141d65750600b820154155b156141e357506001919050565b50600b810154600a909101541190565b60098101805460ff19908116600117909155600c8201805490911690555f601282015561421f81613a80565b60018101546005820154610f07916001600160a01b031690613ab9565b6142446138a0565b6002805460ff191660011790557f62e78cea01bee320cd4e420270b5ea74000d11b0c9f74754ebdbfc544b05a258613dd13390565b5f81815b602d54811015614304575f602d828154811061429b5761429b615c86565b905f5260205f209060020201600101549050856001600160a01b0316602d83815481106142ca576142ca615c86565b5f9182526020909120600290910201546001600160a01b0316036142ef575060019250835b828111156142fb578092505b5060010161427d565b509250929050565b5f5b602d54811015610e7c57826001600160a01b0316602d828154811061433557614335615c86565b5f9182526020909120600290910201546001600160a01b03160361437f5781602d828154811061436757614367615c86565b905f5260205f20906002020160010181905550505050565b60010161430e565b816001600160a01b0316836001600160a01b0316036143a4575f80fd5b6001600160a01b038381165f81815260086020908152604080832094871680845294825291829020805460ff191686151590811790915591519182527f17307eab39ab6107e8899845ad3d59bd9653f200f220920489ca2b5937696c3191015b60405180910390a3505050565b5f61441b84613a43565b600c81015490915060ff1615806144365750601381015460ff165b156144545760405163baf3f0f760e01b815260040160405180910390fd5b60ff831661447e575f80516020615fc383398151915284338585604051611e4c9493929190615ddc565b600c8101805460ff191690555f60128201555f1960ff8416016144a9576144a484613f49565b6144d7565b60011960ff8416016144be576144a4816141f3565b604051630e52390960e41b815260040160405180910390fd5b5f60ff841660011461450d576040518060400160405280600c81526020016b32b6b83637bcb2b9103bb4b760a11b815250614530565b6040518060400160405280600981526020016830b3b2b73a103bb4b760b91b8152505b90507f7b71d2e00379bd165b2750d54298da2414376699827edca2bce2a096c491d2e985338360405161456593929190615e18565b60405180910390a15f80516020615fc38339815191528533868660405161458f9493929190615ddc565b60405180910390a15050505050565b5f806145a98361404a565b6001600160a01b0316141592915050565b80156117d2576040516001600160a01b03808516602483015283166044820152606481018290526117d29085906323b872dd60e01b906084015b60408051601f198184030181529190526020810180516001600160e01b03166001600160e01b031990931692909217909152614c03565b5f6001600160a01b0384163b1561470957604051630a85bd0160e11b81526001600160a01b0385169063150b7a029061466e903390899088908890600401615e4a565b6020604051808303815f875af19250505080156146a8575060408051601f3d908101601f191682019092526146a591810190615e7c565b60015b6146ef573d8080156146d5576040519150601f19603f3d011682016040523d82523d5f602084013e6146da565b606091505b5080515f036146e7575f80fd5b805181602001fd5b6001600160e01b031916630a85bd0160e11b149050613b26565b506001613b26565b805f0361471d57505050565b610e7c8363a9059cbb60e01b84846040516024016145f492919061577a565b5f826147488584614cdf565b1490505b9392505050565b5f8161476057505f61474c565b5f828480519060200120604051602001614784929190918252602082015260400190565b6040516020818303038152906040528051906020012090506147a68582614d21565b156147b557600191505061474c565b6147bf8582614df2565b15613d9257600191505061474c565b600981015460ff16806147e55750601381015460ff165b156148035760405163baf3f0f760e01b815260040160405180910390fd5b600c81015460ff16156148295760405163baf3f0f760e01b815260040160405180910390fd5b60078101546001600160a01b03166148545760405163baf3f0f760e01b815260040160405180910390fd5b6009810154610100900460ff1661487e5760405163baf3f0f760e01b815260040160405180910390fd5b610f07816003018054611ab790615a45565b6013810154610100900460ff165f8190036148be57604051630223b7a760e41b815260040160405180910390fd5b60108201545f906148cf575f6148d3565b600e545b905060646148e18284615c2d565b111561490057604051630e52390960e41b815260040160405180910390fd5b5f60648385600501546149139190615e97565b61491d9190615ec2565b60108501549091505f90614931575f61494f565b6064600e5486600501546149459190615e97565b61494f9190615ec2565b60058601549091506149618284615c2d565b111561498057604051630e52390960e41b815260040160405180910390fd5b5050505050565b5f808260080154426149999190615bae565b90505f6149aa846005015483614f81565b600785015490915061474c906001600160a01b031682614fb6565b6013810154610100900460ff165f8190036149f357604051630223b7a760e41b815260040160405180910390fd5b5f60648284600501540281614a0a57614a0a615eae565b60078501549190049150610e7c906001600160a01b031682613ab9565b60108201546032811115614a4e57604051632488627f60e21b815260040160405180910390fd5b805f03614a5a57505050565b5f806064600e5486600501540281614a7457614a74615eae565b049150828281614a8657614a86615eae565b0490505f614a938561509f565b90505f5b84811015612c46575f876010018281548110614ab557614ab5615c86565b5f918252602090912001546001600160a01b03169050614ad58185613ab9565b614adf8184614fb6565b50600101614a97565b6023805460018101909155600382018054614b079190611ab790615a45565b5f614b9b836003018054614b1a90615a45565b80601f0160208091040260200160405190810160405280929190818152602001828054614b4690615a45565b8015614b915780601f10614b6857610100808354040283529160200191614b91565b820191905f5260205f20905b815481529060010190602001808311614b7457829003601f168201915b50505050506150bb565b6001840154909150614bb6906001600160a01b031683615112565b614bc0828261519f565b60018301546040516001600160a01b039091169083907f178c42dae469a178936faf64c9788e7b86671857ec38f2d53c463f6e4d2163ba90614404908590615450565b5f80836001600160a01b031683604051614c1d9190615ee1565b5f604051808303815f865af19150503d805f8114614c56576040519150601f19603f3d011682016040523d82523d5f602084013e614c5b565b606091505b509150915081614c7e576040516312171d8360e31b815260040160405180910390fd5b80515f03614c8c5750505050565b8051602003614cc65780806020019051810190614ca99190615efc565b6117d2576040516312171d8360e31b815260040160405180910390fd5b6040516312171d8360e31b815260040160405180910390fd5b5f81815b8451811015614d1957614d0f82868381518110614d0257614d02615c86565b60200260200101516151bf565b9150600101614ce3565b509392505050565b6021546040516331a9108f60e11b8152600481018390525f916001600160a01b031690636352211e90602401602060405180830381865afa925050508015614d86575060408051601f3d908101601f19168201909252614d8391810190615f17565b60015b614dcd575f80516020616003833981519152604051614dc0906020808252600790820152661395d7d190525360ca1b604082015260600190565b60405180910390a1614dea565b836001600160a01b0316816001600160a01b031614915050610d6a565b505f92915050565b602054604051630178b8bf60e01b8152600481018390525f9182916001600160a01b0390911690630178b8bf90602401602060405180830381865afa158015614e3d573d5f803e3d5ffd5b505050506040513d601f19601f82011682018060405250810190614e619190615f17565b90506001600160a01b038116614eb7575f80516020616003833981519152604051614ea6906020808252600690820152654e4f5f52455360d01b604082015260600190565b60405180910390a15f915050610d6a565b604051631d9dabef60e11b81526004810184905281906001600160a01b03821690633b3b57de90602401602060405180830381865afa925050508015614f1a575060408051601f3d908101601f19168201909252614f1791810190615f17565b60015b614f62575f80516020616003833981519152604051614f5590602080825260089082015267149154d7d190525360c21b604082015260600190565b60405180910390a1613d92565b856001600160a01b0316816001600160a01b0316149350505050610d6a565b5f670de0b6b3a76400008304620186a06003820a046127108404614fac6001620f42408402016151e8565b0195945050505050565b6001600160a01b0382165f9081526025602052604081205490614fd98383615c2d565b90505f6401d6f0dc40614fec8380615e97565b614ff69190615ec2565b615001906001615c2d565b90505f61500e8284615ec2565b905062015b3881111561503d576001600160a01b0386165f90815260256020526040902062015b389055615058565b6001600160a01b0386165f9081526025602052604090208190555b6001600160a01b0386165f90815260256020526040908190205490515f80516020615fe38339815191529161508f9189919061577a565b60405180910390a1505050505050565b5f6064600e548302816150b4576150b4615eae565b0492915050565b60606150c6826151f2565b156150cf575090565b600a80546150dc90615a45565b90505f036150e8575090565b600a826040516020016150fc929190615f32565b6040516020818303038152906040529050919050565b6001600160a01b038216615124575f80fd5b61512d8161459e565b15615136575f80fd5b61513f8161459e565b15615148575f80fd5b6001600160a01b0382165f81815260066020908152604080832080546001019055848352600590915280822080546001600160a01b0319168417905551839291905f80516020616023833981519152908290a45050565b6151a882613822565b5f828152602e60205260409020610e7c8282615ca9565b5f8183106151d9575f82815260208490526040902061474c565b505f9182526020526040902090565b5f610d6a826152da565b5f8082905060038151101561520957505f92915050565b5f5b8151615218826002615c2d565b10156152d15781818151811061523057615230615c86565b6020910101516001600160f81b031916601d60f91b148015615280575081615259826001615c2d565b8151811061526957615269615c86565b6020910101516001600160f81b031916602f60f81b145b80156152ba575081615293826002615c2d565b815181106152a3576152a3615c86565b6020910101516001600160f81b031916602f60f81b145b156152c9575060019392505050565b60010161520b565b505f9392505050565b5f80608083901c156152ee57608092831c92015b604083901c1561530057604092831c92015b602083901c1561531257602092831c92015b601083901c1561532457601092831c92015b600883901c1561533657600892831c92015b600483901c1561534857600492831c92015b600283901c1561535a57600292831c92015b600183901c15610d6a5760010192915050565b50805461537990615a45565b5f825580601f10615388575050565b601f0160209004905f5260205f2090810190610f0791906153bb565b5080545f8255905f5260205f2090810190610f0791905b5b808211156153cf575f81556001016153bc565b5090565b6001600160e01b031981168114610f07575f80fd5b5f602082840312156153f8575f80fd5b813561474c816153d3565b5f5b8381101561541d578181015183820152602001615405565b50505f910152565b5f815180845261543c816020860160208601615403565b601f01601f19169290920160200192915050565b602081525f61474c6020830184615425565b5f60208284031215615472575f80fd5b5035919050565b6001600160a01b0391909116815260200190565b6001600160a01b0381168114610f07575f80fd5b5f80604083850312156154b2575f80fd5b82356154bd8161548d565b946020939093013593505050565b5f8083601f8401126154db575f80fd5b5081356001600160401b038111156154f1575f80fd5b602083019150836020828501011115615508575f80fd5b9250929050565b5f8060208385031215615520575f80fd5b82356001600160401b03811115615535575f80fd5b615541858286016154cb565b90969095509350505050565b5f6020828403121561555d575f80fd5b813561474c8161548d565b608081525f61557a6080830187615425565b828103602084015261558c8187615425565b905082810360408401526155a08186615425565b905082810360608401526155b48185615425565b979650505050505050565b5f805f606084860312156155d1575f80fd5b83356155dc8161548d565b925060208401356155ec8161548d565b929592945050506040919091013590565b634e487b7160e01b5f52604160045260245ffd5b5f6001600160401b038084111561562a5761562a6155fd565b604051601f8501601f19908116603f01168101908282118183101715615652576156526155fd565b8160405280935085815286868601111561566a575f80fd5b858560208301375f602087830101525050509392505050565b5f82601f830112615692575f80fd5b61474c83833560208501615611565b5f805f80606085870312156156b4575f80fd5b8435935060208501356001600160401b03808211156156d1575f80fd5b6156dd88838901615683565b945060408701359150808211156156f2575f80fd5b818701915087601f830112615705575f80fd5b813581811115615713575f80fd5b8860208260051b8501011115615727575f80fd5b95989497505060200194505050565b8015158114610f07575f80fd5b5f8060408385031215615754575f80fd5b823561575f8161548d565b9150602083013561576f81615736565b809150509250929050565b6001600160a01b03929092168252602082015260400190565b5f80604083850312156157a4575f80fd5b50508035926020909101359150565b5f805f80608085870312156157c6575f80fd5b5050823594602084013594506040840135936060013592509050565b5f805f604084860312156157f4575f80fd5b8335925060208401356001600160401b03811115615810575f80fd5b61581c868287016154cb565b9497909650939450505050565b5f805f806080858703121561583c575f80fd5b84356158478161548d565b935060208501356158578161548d565b92506040850135915060608501356001600160401b03811115615878575f80fd5b8501601f81018713615888575f80fd5b61589787823560208401615611565b91505092959194509250565b5f805f80606085870312156158b6575f80fd5b84359350602085013560ff811681146158cd575f80fd5b925060408501356001600160401b038111156158e7575f80fd5b6158f3878288016154cb565b95989497509550505050565b5f805f805f8060608789031215615914575f80fd5b86356001600160401b038082111561592a575f80fd5b6159368a838b016154cb565b9098509650602089013591508082111561594e575f80fd5b61595a8a838b016154cb565b90965094506040890135915080821115615972575f80fd5b5061597f89828a016154cb565b979a9699509497509295939492505050565b5f80604083850312156159a2575f80fd5b82359150602083013561576f81615736565b5f80604083850312156159c5575f80fd5b82356159d08161548d565b9150602083013561576f8161548d565b5f805f80608085870312156159f3575f80fd5b84356001600160401b0380821115615a09575f80fd5b615a1588838901615683565b955060208701359450604087013593506060870135915080821115615a38575f80fd5b5061589787828801615683565b600181811c90821680615a5957607f821691505b602082108103613c4e57634e487b7160e01b5f52602260045260245ffd5b601f821115610e7c57805f5260205f20601f840160051c81016020851015615a9c5750805b601f840160051c820191505b81811015614980575f8155600101615aa8565b5f19600383901b1c191660019190911b1790565b6001600160401b03831115615ae657615ae66155fd565b615afa83615af48354615a45565b83615a77565b5f601f841160018114615b26575f8515615b145750838201355b615b1e8682615abb565b845550614980565b5f83815260208120601f198716915b82811015615b555786850135825560209485019460019092019101615b35565b5086821015615b71575f1960f88860031b161c19848701351681555b505060018560011b0183555050505050565b5f60208284031215615b93575f80fd5b5051919050565b634e487b7160e01b5f52601160045260245ffd5b81810381811115610d6a57610d6a615b9a565b9182526001600160a01b0316602082015260400190565b5f60018201615be957615be9615b9a565b5060010190565b918252602082015260400190565b9485526001600160a01b0393841660208601529190921660408401529015156060830152608082015260a00190565b80820180821115610d6a57610d6a615b9a565b8481526001600160a01b03841660208201526060604082018190528101829052818360808301375f818301608090810191909152601f909201601f191601019392505050565b634e487b7160e01b5f52603260045260245ffd5b818382375f9101908152919050565b81516001600160401b03811115615cc257615cc26155fd565b615cd681615cd08454615a45565b84615a77565b602080601f831160018114615d04575f8415615cf25750858301515b615cfc8582615abb565b8655506139e9565b5f85815260208120601f198616915b82811015615d3257888601518255948401946001909101908401615d13565b5085821015615d4f57878501515f19600388901b60f8161c191681555b5050505050600190811b01905550565b85815260a060208201525f615d7760a0830187615425565b8560408401528460608401528281036080840152615d958185615425565b98975050505050505050565b60609190911b6001600160601b031916815260140190565b6001600160a01b03831681526040602082018190525f90613b2690830184615425565b8481526001600160a01b038416602082015260ff831660408201526080606082018190525f90615e0e90830184615425565b9695505050505050565b8381526001600160a01b03831660208201526060604082018190525f90615e4190830184615425565b95945050505050565b6001600160a01b03858116825284166020820152604081018390526080606082018190525f90615e0e90830184615425565b5f60208284031215615e8c575f80fd5b815161474c816153d3565b8082028115828204841417610d6a57610d6a615b9a565b634e487b7160e01b5f52601260045260245ffd5b5f82615edc57634e487b7160e01b5f52601260045260245ffd5b500490565b5f8251615ef2818460208701615403565b9190910192915050565b5f60208284031215615f0c575f80fd5b815161474c81615736565b5f60208284031215615f27575f80fd5b815161474c8161548d565b5f808454615f3f81615a45565b60018281168015615f575760018114615f6c57615f98565b60ff1984168752821515830287019450615f98565b885f526020805f205f5b85811015615f8f5781548a820152908401908201615f76565b50505082870194505b50505050602f60f81b81528351615fb6816001840160208801615403565b0160010194935050505056fef684d3ce601919f66e2d6dc09c74c69c8499dec096ebb85f7f83f9e246a26efbfc577563f1b9a0461e24abef1e1fcc0d33d3d881f20b5df6dda59de4aae2c821508ff4ae67e5193ae2a15c31476fe1e3da49a0429e3f89334969e43bcacb17e6ddf252ad1be2c89b69c2b068fc378daa952ba7f163c4a11628f55a4df523b3ef058679c4bcd6f12863654cf3e5be3f903efd6d6fed77e439942a97942145f8ad58243f872c550ad02802199ade99eb4250f6bb19e9abbf2d3de7b969c0eb5e4f1eb5ff081300af42d8bf6abb0233e209c85662220454f1e8655fc3e7e7d846f6a164736f6c6343000818000a",
  "immutableReferences": {},
  "source": "// SPDX-License-Identifier: MIT\n\n/*\n\n[ R E G U L A T O R Y  C O M P L I A N C E  &  L E G A L  D I S C L O S U R E S ]\n\nPublished by: ALPHA.AGI.ETH\n\nApproval Authority: ALPHA.AGI.ETH\n\nOffice of Primary Responsibility: ALPHA.AGI.ETH\n\nInitial Terms & Conditions\n\nThe Emergence of an AGI-Powered Alpha Agent.\n\nTicker ($): AGIALPHA\n\nRooted in the publicly disclosed 2017 \"Multi-Agent AI DAO\" prior art, the AGI ALPHA AGENT utilizes $AGIALPHA tokens purely as utility tokensno equity, no profit-sharingto grant users prepaid access to the AGI ALPHA AGENTs capabilities. By structuring $AGIALPHA as an advance payment mechanism for leveraging ALPHA.AGENT.AGI.Eths AI-driven services, holders likely avoid securities classification complexities. By purchasing these tokens, you gain usage credits for future AI services from the AGI ALPHA AGENT. Instead of representing ownership or investment rights, these tokens simply secure the right to interact with and benefit from the AGI ALPHA AGENTs intelligence and outputs. This model delivers a straightforward, compliance-friendly approach to accessing cutting-edge AI functionalities, ensuring a seamless, equity-free experience for all participants.\n\n1. Token Usage: $AGIALPHA tokens are strictly utility tokensno equity, no profit-sharingintended for the purchase of products/services by the AGI ALPHA AGENT (ALPHA.AGENT.AGI.Eth). They are not intended for investment or speculative purposes.\n\n2. Non-Refundable: Purchases of $AGIALPHA tokens are final and non-refundable.\n\n3. No Guarantee of Value: The issuer does not guarantee any specific value of the $AGIALPHA token in relation to fiat currencies or other cryptocurrencies.\n\n4. Regulatory Compliance: It is the users responsibility to ensure that the purchase and use of $AGIALPHA tokens comply with all applicable laws and regulations.\n\n5. User Responsibility: Users are responsible for complying with the laws in their own jurisdiction regarding the purchase and use of $AGIALPHA tokens.\n\nOVERRIDING AUTHORITY: AGI.Eth\n\n$AGIALPHA is experimental and part of an ambitious research agenda. Any expectation of profit is unjustified.\n\nMaterials provided (including $AGIALPHA) are without warranty. By using $AGIALPHA, you agree to the $AGIALPHA Terms and Conditions.\n\nChanges to Terms: The issuer may revise these terms at any time, subject to regulatory compliance. Current Terms & Conditions: https://agialphaagent.com/.\n\nTHIS IS PART OF AN ASPIRATIONAL RESEARCH PROGRAM WITH AN AMBITIOUS RESEARCH AGENDA. ANY EXPECTATION OF PROFIT OR RETURN IS UNJUSTIFIED. POSSESSION OF $AGIALPHA DOES NOT SIGNIFY OR ESTABLISH ANY ENTITLEMENT OR INTEREST, SHARE OR EQUITY, BOND OR ANALOGOUS ENTITLEMENT, OR ANY RIGHT TO OBTAIN ANY FUTURE INCOME. MATERIALS PROVIDED IN THIS SYSTEM ARE WITHOUT WARRANTY OF ANY KIND AND DO NOT CONSTITUTE ENDORSEMENT AND CAN BE MODIFIED AT ANY TIME. BY USING THE PRESENT SYSTEM, YOU AGREE TO THE $AGIALPHA TERMS AND CONDITIONS. ANY USE OF THIS SYSTEM, OR ANY OF THE INFORMATION CONTAINED HEREIN, FOR OTHER THAN THE PURPOSE FOR WHICH IT WAS DEVELOPED, IS EXPRESSLY PROHIBITED, EXCEPT AS AGI.ETH MAY OTHERWISE AGREE TO IN WRITING OFFICIALLY.\n\nOVERRIDING AUTHORITY: AGI.ETH\n\n*/\n\npragma solidity ^0.8.24;\n\nimport \"@openzeppelin/contracts/token/ERC20/IERC20.sol\";\nimport \"@openzeppelin/contracts/token/ERC721/ERC721.sol\";\nimport \"@openzeppelin/contracts/security/ReentrancyGuard.sol\";\nimport \"@openzeppelin/contracts/security/Pausable.sol\";\nimport \"@openzeppelin/contracts/access/Ownable.sol\";\nimport \"@openzeppelin/contracts/utils/cryptography/MerkleProof.sol\";\nimport \"@openzeppelin/contracts/utils/math/Math.sol\";\n\ninterface ENS {\n    function resolver(bytes32 node) external view returns (address);\n}\n\ninterface Resolver {\n    function addr(bytes32 node) external view returns (address payable);\n}\n\ninterface NameWrapper {\n    function ownerOf(uint256 id) external view returns (address);\n}\n\ncontract AGIJobManager is Ownable, ReentrancyGuard, Pausable, ERC721 {\n    using MerkleProof for bytes32[];\n\n    // -----------------------\n    // Custom errors (smaller bytecode than revert strings)\n    // -----------------------\n    error NotModerator();\n    error NotAuthorized();\n    error Blacklisted();\n    error InvalidParameters();\n    error InvalidState();\n    error JobNotFound();\n    error TransferFailed();\n    error ValidatorLimitReached();\n    error InvalidValidatorThresholds();\n    error ValidatorSetTooLarge();\n    error IneligibleAgentPayout();\n    error InvalidAgentPayoutSnapshot();\n    error InsufficientWithdrawableBalance();\n    error InsolventEscrowBalance();\n    error ConfigLocked();\n\n    /// @notice Canonical job lifecycle status enum (numeric ordering is stable; do not reorder).\n    /// @dev 0 = Deleted (employer == address(0) or removed)\n    /// @dev 1 = Open (exists, employer set, no assigned agent)\n    /// @dev 2 = InProgress (assigned agent, not completed, not disputed, no completion request)\n    /// @dev 3 = CompletionRequested (agent requested completion)\n    /// @dev 4 = Disputed (disputed flag on)\n    /// @dev 5 = Completed (completed flag on)\n    /// @dev 6 = Expired (computed timeout; informational if expireJob not called)\n    enum JobStatus {\n        Deleted,\n        Open,\n        InProgress,\n        CompletionRequested,\n        Disputed,\n        Completed,\n        Expired\n    }\n\n    /// @notice Canonical dispute resolution codes (numeric ordering is stable; do not reorder).\n    /// @dev 0 = NO_ACTION (log only; dispute remains active)\n    /// @dev 1 = AGENT_WIN (settle in favor of agent)\n    /// @dev 2 = EMPLOYER_WIN (settle in favor of employer)\n    enum DisputeResolutionCode {\n        NO_ACTION,\n        AGENT_WIN,\n        EMPLOYER_WIN\n    }\n\n    // Pre-hashed resolution strings (smaller + cheaper than hashing literals each call)\n    bytes32 private constant RES_AGENT_WIN = 0x6594a8dd3f558fd2dd11fa44c7925f5b9e19868e6d0b4b97d2132fe5e25b5071;\n    bytes32 private constant RES_EMPLOYER_WIN = 0xee31e9f396a85b8517c6d07b02f904858ad9f3456521bedcff02cc14e75ca8ce;\n\n    IERC20 public agiToken;\n    string private baseIpfsUrl;\n    // Conservative hard cap to bound settlement loops on mainnet.\n    uint256 public constant MAX_VALIDATORS_PER_JOB = 50;\n    uint256 public requiredValidatorApprovals = 3;\n    uint256 public requiredValidatorDisapprovals = 3;\n    uint256 public premiumReputationThreshold = 10000;\n    uint256 public validationRewardPercentage = 8;\n    uint256 public maxJobPayout = 4888e18;\n    uint256 public jobDurationLimit = 10000000;\n    uint256 public completionReviewPeriod = 7 days;\n    uint256 public disputeReviewPeriod = 14 days;\n    uint256 internal constant MAX_REVIEW_PERIOD = 365 days;\n    uint256 public additionalAgentPayoutPercentage = 50;\n    /// @notice Total AGI reserved for unsettled job escrows.\n    /// @dev Tracks job payout escrows only.\n    uint256 public lockedEscrow;\n\n    string public termsAndConditionsIpfsHash;\n    string public contactEmail;\n    string public additionalText1;\n    string public additionalText2;\n    string public additionalText3;\n\n    bytes32 public clubRootNode;\n    bytes32 public alphaClubRootNode;\n    bytes32 public agentRootNode;\n    bytes32 public alphaAgentRootNode;\n    bytes32 public validatorMerkleRoot;\n    bytes32 public agentMerkleRoot;\n    ENS public ens;\n    NameWrapper public nameWrapper;\n    bool public configLocked;\n\n    struct Job {\n        uint256 id;\n        address employer;\n        string jobSpecURI;\n        string jobCompletionURI;\n        string ipfsHash;\n        uint256 payout;\n        uint256 duration;\n        address assignedAgent;\n        uint256 assignedAt;\n        bool completed;\n        bool completionRequested;\n        uint256 validatorApprovals;\n        uint256 validatorDisapprovals;\n        bool disputed;\n        string details;\n        mapping(address => bool) approvals;\n        mapping(address => bool) disapprovals;\n        address[] validators;\n        uint256 completionRequestedAt;\n        uint256 disputedAt;\n        bool expired;\n        uint8 agentPayoutPct;\n        bool escrowReleased;\n    }\n\n    struct AGIType {\n        address nftAddress;\n        uint256 payoutPercentage;\n    }\n\n    struct Listing {\n        uint256 tokenId;\n        address seller;\n        uint256 price;\n        bool isActive;\n    }\n\n\n    uint256 public nextJobId;\n    uint256 public nextTokenId;\n    mapping(uint256 => Job) internal jobs;\n    mapping(address => uint256) public reputation;\n    mapping(address => bool) public moderators;\n    mapping(address => bool) public additionalValidators;\n    mapping(address => bool) public additionalAgents;\n    mapping(address => uint256[]) public validatorApprovedJobs;\n    mapping(uint256 => Listing) public listings;\n    mapping(address => bool) public blacklistedAgents;\n    mapping(address => bool) public blacklistedValidators;\n    AGIType[] public agiTypes;\n    mapping(uint256 => string) private _tokenURIs;\n\n    event JobCreated(uint256 jobId, string jobSpecURI, uint256 payout, uint256 duration, string details);\n    event JobApplied(uint256 jobId, address agent);\n    event JobCompletionRequested(uint256 jobId, address agent, string jobCompletionURI);\n    event JobValidated(uint256 jobId, address validator);\n    event JobDisapproved(uint256 jobId, address validator);\n    event JobCompleted(uint256 jobId, address agent, uint256 reputationPoints);\n    event ReputationUpdated(address user, uint256 newReputation);\n    event JobCancelled(uint256 jobId);\n    event DisputeResolved(uint256 jobId, address resolver, string resolution);\n    event DisputeResolvedWithCode(uint256 jobId, address resolver, uint8 resolutionCode, string reason);\n    event JobDisputed(uint256 jobId, address disputant);\n    event JobExpired(uint256 jobId, address employer, address agent, uint256 payout);\n    event JobFinalized(uint256 jobId, address agent, address employer, bool agentPaid, uint256 payout);\n    event DisputeTimeoutResolved(uint256 jobId, address resolver, bool employerWins);\n    event EnsRegistryUpdated(address indexed newEnsRegistry);\n    event NameWrapperUpdated(address indexed newNameWrapper);\n    event RootNodesUpdated(\n        bytes32 clubRootNode,\n        bytes32 agentRootNode,\n        bytes32 alphaClubRootNode,\n        bytes32 alphaAgentRootNode\n    );\n    event MerkleRootsUpdated(bytes32 validatorMerkleRoot, bytes32 agentMerkleRoot);\n    event OwnershipVerified(address claimant, string subdomain);\n    event RecoveryInitiated(string reason);\n    event AGITypeUpdated(address indexed nftAddress, uint256 payoutPercentage);\n    event NFTIssued(uint256 indexed tokenId, address indexed employer, string tokenURI);\n    event NFTListed(uint256 indexed tokenId, address indexed seller, uint256 price);\n    event NFTPurchased(uint256 indexed tokenId, address indexed buyer, uint256 price);\n    event NFTDelisted(uint256 indexed tokenId);\n    event RewardPoolContribution(address indexed contributor, uint256 amount);\n    event CompletionReviewPeriodUpdated(uint256 oldPeriod, uint256 newPeriod);\n    event DisputeReviewPeriodUpdated(uint256 oldPeriod, uint256 newPeriod);\n    event AdditionalAgentPayoutPercentageUpdated(uint256 newPercentage);\n    event AGIWithdrawn(address indexed to, uint256 amount, uint256 remainingWithdrawable);\n    event ConfigurationLocked(address indexed locker, uint256 atTimestamp);\n\n    constructor(\n        address agiTokenAddress,\n        string memory baseIpfs,\n        address[2] memory ensConfig,\n        bytes32[4] memory rootNodes,\n        bytes32[2] memory merkleRoots\n    ) ERC721(\"AGIJobs\", \"Job\") {\n        _initAddressConfig(agiTokenAddress, baseIpfs, ensConfig[0], ensConfig[1]);\n        _initRoots(rootNodes, merkleRoots);\n\n        _validateValidatorThresholds(requiredValidatorApprovals, requiredValidatorDisapprovals);\n    }\n\n    modifier onlyModerator() {\n        if (!moderators[msg.sender]) revert NotModerator();\n        _;\n    }\n\n    modifier whenCriticalConfigurable() {\n        if (configLocked) revert ConfigLocked();\n        _;\n    }\n\n    function _initAddressConfig(\n        address agiTokenAddress,\n        string memory baseIpfs,\n        address ensAddress,\n        address nameWrapperAddress\n    ) internal {\n        agiToken = IERC20(agiTokenAddress);\n        baseIpfsUrl = baseIpfs;\n        ens = ENS(ensAddress);\n        nameWrapper = NameWrapper(nameWrapperAddress);\n    }\n\n    function _initRoots(bytes32[4] memory rootNodes, bytes32[2] memory merkleRoots) internal {\n        clubRootNode = rootNodes[0];\n        agentRootNode = rootNodes[1];\n        alphaClubRootNode = rootNodes[2];\n        alphaAgentRootNode = rootNodes[3];\n        validatorMerkleRoot = merkleRoots[0];\n        agentMerkleRoot = merkleRoots[1];\n    }\n\n    // -----------------------\n    // Internal helpers\n    // -----------------------\n    function _job(uint256 jobId) internal view returns (Job storage job) {\n        job = jobs[jobId];\n        if (job.employer == address(0)) revert JobNotFound();\n    }\n\n    function _t(address to, uint256 amount) internal {\n        _safeERC20Transfer(agiToken, to, amount);\n    }\n\n    function _tFrom(address from, address to, uint256 amount) internal {\n        _safeERC20TransferFrom(agiToken, from, to, amount);\n    }\n\n    function _safeERC20Transfer(IERC20 token, address to, uint256 amount) internal {\n        if (amount == 0) return;\n        _callOptionalReturn(token, abi.encodeWithSelector(token.transfer.selector, to, amount));\n    }\n\n    function _safeERC20TransferFrom(IERC20 token, address from, address to, uint256 amount) internal {\n        if (amount == 0) return;\n        _callOptionalReturn(token, abi.encodeWithSelector(token.transferFrom.selector, from, to, amount));\n    }\n\n    function _safeERC20TransferFromExact(IERC20 token, address from, address to, uint256 amount) internal {\n        if (amount == 0) return;\n        uint256 balanceBefore = token.balanceOf(to);\n        _safeERC20TransferFrom(token, from, to, amount);\n        uint256 balanceAfter = token.balanceOf(to);\n        if (balanceAfter < balanceBefore || balanceAfter - balanceBefore != amount) revert TransferFailed();\n    }\n\n    function _releaseEscrow(Job storage job) internal {\n        if (job.escrowReleased) return;\n        job.escrowReleased = true;\n        unchecked {\n            lockedEscrow -= job.payout;\n        }\n    }\n\n    function _validateValidatorThresholds(uint256 approvals, uint256 disapprovals) internal pure {\n        if (\n            approvals > MAX_VALIDATORS_PER_JOB ||\n            disapprovals > MAX_VALIDATORS_PER_JOB ||\n            approvals + disapprovals > MAX_VALIDATORS_PER_JOB\n        ) {\n            revert InvalidValidatorThresholds();\n        }\n    }\n\n    function _enforceValidatorCapacity(uint256 currentCount) internal pure {\n        if (currentCount >= MAX_VALIDATORS_PER_JOB) revert ValidatorLimitReached();\n    }\n\n    function _maxAGITypePayoutPercentage() internal view returns (uint256) {\n        uint256 maxPercentage = 0;\n        for (uint256 i = 0; i < agiTypes.length; ) {\n            uint256 pct = agiTypes[i].payoutPercentage;\n            if (pct > maxPercentage) {\n                maxPercentage = pct;\n            }\n            unchecked {\n                ++i;\n            }\n        }\n        return maxPercentage;\n    }\n\n    function _callOptionalReturn(IERC20 token, bytes memory data) internal {\n        (bool success, bytes memory returndata) = address(token).call(data);\n        if (!success) revert TransferFailed();\n        if (returndata.length == 0) return;\n        if (returndata.length == 32) {\n            if (!abi.decode(returndata, (bool))) revert TransferFailed();\n            return;\n        }\n        revert TransferFailed();\n    }\n\n    function pause() external onlyOwner { _pause(); }\n    function unpause() external onlyOwner { _unpause(); }\n    function lockConfiguration() external onlyOwner whenCriticalConfigurable {\n        configLocked = true;\n        emit ConfigurationLocked(msg.sender, block.timestamp);\n    }\n\n    function createJob(string memory _jobSpecURI, uint256 _payout, uint256 _duration, string memory _details) external whenNotPaused nonReentrant {\n        if (!(_payout > 0 && _duration > 0 && _payout <= maxJobPayout && _duration <= jobDurationLimit)) revert InvalidParameters();\n        _requireValidUri(_jobSpecURI);\n        uint256 jobId = nextJobId;\n        unchecked {\n            ++nextJobId;\n        }\n        Job storage job = jobs[jobId];\n        job.id = jobId;\n        job.employer = msg.sender;\n        job.jobSpecURI = _jobSpecURI;\n        job.ipfsHash = _jobSpecURI;\n        job.payout = _payout;\n        job.duration = _duration;\n        job.details = _details;\n        _safeERC20TransferFromExact(agiToken, msg.sender, address(this), _payout);\n        unchecked {\n            lockedEscrow += _payout;\n        }\n        emit JobCreated(jobId, _jobSpecURI, _payout, _duration, _details);\n    }\n\n    function applyForJob(uint256 _jobId, string memory subdomain, bytes32[] calldata proof) external whenNotPaused nonReentrant {\n        Job storage job = _job(_jobId);\n        if (job.assignedAgent != address(0)) revert InvalidState();\n        if (blacklistedAgents[msg.sender]) revert Blacklisted();\n        if (!(additionalAgents[msg.sender] || _verifyOwnershipAgent(msg.sender, subdomain, proof))) revert NotAuthorized();\n        uint256 snapshotPct = getHighestPayoutPercentage(msg.sender);\n        if (snapshotPct == 0) revert IneligibleAgentPayout();\n        job.agentPayoutPct = uint8(snapshotPct);\n        job.assignedAgent = msg.sender;\n        job.assignedAt = block.timestamp;\n        emit JobApplied(_jobId, msg.sender);\n    }\n\n    function requestJobCompletion(uint256 _jobId, string calldata _jobCompletionURI) external {\n        Job storage job = _job(_jobId);\n        if (bytes(_jobCompletionURI).length == 0) revert InvalidParameters();\n        require(!paused() || job.disputed, \"Pausable: paused\");\n        if (msg.sender != job.assignedAgent) revert NotAuthorized();\n        if (job.completed || job.expired) revert InvalidState();\n        if (!job.disputed && block.timestamp > job.assignedAt + job.duration) revert InvalidState();\n        if (job.completionRequested) revert InvalidState();\n        _requireValidUri(_jobCompletionURI);\n        job.jobCompletionURI = _jobCompletionURI;\n        job.completionRequested = true;\n        job.completionRequestedAt = block.timestamp;\n        emit JobCompletionRequested(_jobId, msg.sender, _jobCompletionURI);\n    }\n\n    function validateJob(uint256 _jobId, string memory subdomain, bytes32[] calldata proof) external whenNotPaused nonReentrant {\n        Job storage job = _job(_jobId);\n        if (job.disputed) revert InvalidState();\n        if (job.assignedAgent == address(0)) revert InvalidState();\n        if (job.completed) revert InvalidState();\n        if (job.expired) revert InvalidState();\n        if (blacklistedValidators[msg.sender]) revert Blacklisted();\n        if (!(additionalValidators[msg.sender] || _verifyOwnershipValidator(msg.sender, subdomain, proof))) revert NotAuthorized();\n        if (!job.completionRequested) revert InvalidState();\n        _requireValidUri(job.jobCompletionURI);\n        if (job.approvals[msg.sender]) revert InvalidState();\n        if (job.disapprovals[msg.sender]) revert InvalidState();\n\n        _enforceValidatorCapacity(job.validators.length);\n        job.validatorApprovals++;\n        job.approvals[msg.sender] = true;\n        job.validators.push(msg.sender);\n        validatorApprovedJobs[msg.sender].push(_jobId);\n        emit JobValidated(_jobId, msg.sender);\n        if (job.validatorApprovals >= requiredValidatorApprovals) _completeJob(_jobId);\n    }\n\n    function disapproveJob(uint256 _jobId, string memory subdomain, bytes32[] calldata proof) external whenNotPaused nonReentrant {\n        Job storage job = _job(_jobId);\n        if (job.disputed) revert InvalidState();\n        if (job.assignedAgent == address(0)) revert InvalidState();\n        if (job.completed) revert InvalidState();\n        if (job.expired) revert InvalidState();\n        if (blacklistedValidators[msg.sender]) revert Blacklisted();\n        if (!(additionalValidators[msg.sender] || _verifyOwnershipValidator(msg.sender, subdomain, proof))) revert NotAuthorized();\n        if (!job.completionRequested) revert InvalidState();\n        _requireValidUri(job.jobCompletionURI);\n        if (job.disapprovals[msg.sender]) revert InvalidState();\n        if (job.approvals[msg.sender]) revert InvalidState();\n\n        _enforceValidatorCapacity(job.validators.length);\n        job.validatorDisapprovals++;\n        job.disapprovals[msg.sender] = true;\n        job.validators.push(msg.sender);\n        validatorApprovedJobs[msg.sender].push(_jobId);\n        emit JobDisapproved(_jobId, msg.sender);\n        if (job.validatorDisapprovals >= requiredValidatorDisapprovals) {\n            job.disputed = true;\n            if (job.disputedAt == 0) {\n                job.disputedAt = block.timestamp;\n            }\n            emit JobDisputed(_jobId, msg.sender);\n        }\n    }\n\n    function disputeJob(uint256 _jobId) external whenNotPaused nonReentrant {\n        Job storage job = _job(_jobId);\n        if (job.disputed || job.completed || job.expired) revert InvalidState();\n        if (msg.sender != job.assignedAgent && msg.sender != job.employer) revert NotAuthorized();\n        if (!job.completionRequested) revert InvalidState();\n        job.disputed = true;\n        if (job.disputedAt == 0) {\n            job.disputedAt = block.timestamp;\n        }\n        emit JobDisputed(_jobId, msg.sender);\n    }\n\n    /// @notice Deprecated: use resolveDisputeWithCode for typed settlement.\n    /// @dev Non-canonical strings map to NO_ACTION (dispute remains active).\n    function resolveDispute(uint256 _jobId, string calldata resolution) external onlyModerator nonReentrant {\n        uint8 resolutionCode = uint8(DisputeResolutionCode.NO_ACTION);\n        bytes32 r = keccak256(bytes(resolution));\n        if (r == RES_AGENT_WIN) {\n            resolutionCode = uint8(DisputeResolutionCode.AGENT_WIN);\n        } else if (r == RES_EMPLOYER_WIN) {\n            resolutionCode = uint8(DisputeResolutionCode.EMPLOYER_WIN);\n        }\n        _resolveDispute(_jobId, resolutionCode, resolution);\n    }\n\n    /// @notice Resolve a dispute with a typed action code and freeform reason.\n    function resolveDisputeWithCode(\n        uint256 _jobId,\n        uint8 resolutionCode,\n        string calldata reason\n    ) external onlyModerator nonReentrant {\n        _resolveDispute(_jobId, resolutionCode, reason);\n    }\n\n    function _resolveDispute(uint256 _jobId, uint8 resolutionCode, string memory reason) internal {\n        Job storage job = _job(_jobId);\n        if (!job.disputed || job.expired) revert InvalidState();\n\n        if (resolutionCode == uint8(DisputeResolutionCode.NO_ACTION)) {\n            emit DisputeResolvedWithCode(_jobId, msg.sender, resolutionCode, reason);\n            return;\n        }\n\n        job.disputed = false;\n        job.disputedAt = 0;\n\n        if (resolutionCode == uint8(DisputeResolutionCode.AGENT_WIN)) {\n            _completeJob(_jobId);\n        } else if (resolutionCode == uint8(DisputeResolutionCode.EMPLOYER_WIN)) {\n            _refundEmployer(job);\n        } else {\n            revert InvalidParameters();\n        }\n\n        string memory legacyResolution = resolutionCode == uint8(DisputeResolutionCode.AGENT_WIN)\n            ? \"agent win\"\n            : \"employer win\";\n        emit DisputeResolved(_jobId, msg.sender, legacyResolution);\n        emit DisputeResolvedWithCode(_jobId, msg.sender, resolutionCode, reason);\n    }\n\n    function resolveStaleDispute(uint256 _jobId, bool employerWins) external onlyOwner whenPaused nonReentrant {\n        Job storage job = _job(_jobId);\n        if (!job.disputed || job.expired) revert InvalidState();\n        if (job.disputedAt == 0) revert InvalidState();\n        if (block.timestamp <= job.disputedAt + disputeReviewPeriod) revert InvalidState();\n\n        emit RecoveryInitiated(\"DISPUTE_TIMEOUT\");\n        if (employerWins) {\n            _refundEmployer(job);\n        } else {\n            job.disputed = false;\n            job.disputedAt = 0;\n            _completeJob(_jobId);\n        }\n        emit DisputeTimeoutResolved(_jobId, msg.sender, employerWins);\n    }\n\n    function blacklistAgent(address _agent, bool _status) external onlyOwner {\n        blacklistedAgents[_agent] = _status;\n    }\n    function blacklistValidator(address _validator, bool _status) external onlyOwner {\n        blacklistedValidators[_validator] = _status;\n    }\n\n    function delistJob(uint256 _jobId) external onlyOwner {\n        Job storage job = _job(_jobId);\n        if (job.completed || job.assignedAgent != address(0)) revert InvalidState();\n        _releaseEscrow(job);\n        _t(job.employer, job.payout);\n        delete jobs[_jobId];\n        emit JobCancelled(_jobId);\n    }\n\n    function addModerator(address _moderator) external onlyOwner { moderators[_moderator] = true; }\n    function removeModerator(address _moderator) external onlyOwner { moderators[_moderator] = false; }\n    function updateAGITokenAddress(address _newTokenAddress) external onlyOwner whenCriticalConfigurable {\n        if (_newTokenAddress == address(0)) revert InvalidParameters();\n        if (nextJobId != 0 || lockedEscrow != 0) revert InvalidState();\n        agiToken = IERC20(_newTokenAddress);\n    }\n    function updateEnsRegistry(address _newEnsRegistry) external onlyOwner whenCriticalConfigurable {\n        if (_newEnsRegistry == address(0)) revert InvalidParameters();\n        if (nextJobId != 0 || lockedEscrow != 0) revert InvalidState();\n        ens = ENS(_newEnsRegistry);\n        emit EnsRegistryUpdated(_newEnsRegistry);\n    }\n    function updateNameWrapper(address _newNameWrapper) external onlyOwner whenCriticalConfigurable {\n        if (_newNameWrapper == address(0)) revert InvalidParameters();\n        if (nextJobId != 0 || lockedEscrow != 0) revert InvalidState();\n        nameWrapper = NameWrapper(_newNameWrapper);\n        emit NameWrapperUpdated(_newNameWrapper);\n    }\n    function updateRootNodes(\n        bytes32 _clubRootNode,\n        bytes32 _agentRootNode,\n        bytes32 _alphaClubRootNode,\n        bytes32 _alphaAgentRootNode\n    ) external onlyOwner whenCriticalConfigurable {\n        if (nextJobId != 0 || lockedEscrow != 0) revert InvalidState();\n        clubRootNode = _clubRootNode;\n        agentRootNode = _agentRootNode;\n        alphaClubRootNode = _alphaClubRootNode;\n        alphaAgentRootNode = _alphaAgentRootNode;\n        emit RootNodesUpdated(_clubRootNode, _agentRootNode, _alphaClubRootNode, _alphaAgentRootNode);\n    }\n    function updateMerkleRoots(bytes32 _validatorMerkleRoot, bytes32 _agentMerkleRoot) external onlyOwner {\n        validatorMerkleRoot = _validatorMerkleRoot;\n        agentMerkleRoot = _agentMerkleRoot;\n        emit MerkleRootsUpdated(_validatorMerkleRoot, _agentMerkleRoot);\n    }\n    function setBaseIpfsUrl(string calldata _url) external onlyOwner { baseIpfsUrl = _url; }\n    function setRequiredValidatorApprovals(uint256 _approvals) external onlyOwner {\n        _validateValidatorThresholds(_approvals, requiredValidatorDisapprovals);\n        requiredValidatorApprovals = _approvals;\n    }\n    function setRequiredValidatorDisapprovals(uint256 _disapprovals) external onlyOwner {\n        _validateValidatorThresholds(requiredValidatorApprovals, _disapprovals);\n        requiredValidatorDisapprovals = _disapprovals;\n    }\n    function setPremiumReputationThreshold(uint256 _threshold) external onlyOwner { premiumReputationThreshold = _threshold; }\n    function setMaxJobPayout(uint256 _maxPayout) external onlyOwner { maxJobPayout = _maxPayout; }\n    function setJobDurationLimit(uint256 _limit) external onlyOwner { jobDurationLimit = _limit; }\n    function setCompletionReviewPeriod(uint256 _period) external onlyOwner {\n        if (!(_period > 0 && _period <= MAX_REVIEW_PERIOD)) revert InvalidParameters();\n        uint256 oldPeriod = completionReviewPeriod;\n        completionReviewPeriod = _period;\n        emit CompletionReviewPeriodUpdated(oldPeriod, _period);\n    }\n    function setDisputeReviewPeriod(uint256 _period) external onlyOwner {\n        if (!(_period > 0 && _period <= MAX_REVIEW_PERIOD)) revert InvalidParameters();\n        uint256 oldPeriod = disputeReviewPeriod;\n        disputeReviewPeriod = _period;\n        emit DisputeReviewPeriodUpdated(oldPeriod, _period);\n    }\n    function setAdditionalAgentPayoutPercentage(uint256 _percentage) external onlyOwner {\n        if (!(_percentage > 0 && _percentage <= 100)) revert InvalidParameters();\n        if (_percentage > 100 - validationRewardPercentage) revert InvalidParameters();\n        additionalAgentPayoutPercentage = _percentage;\n        emit AdditionalAgentPayoutPercentageUpdated(_percentage);\n    }\n    function updateTermsAndConditionsIpfsHash(string calldata _hash) external onlyOwner { termsAndConditionsIpfsHash = _hash; }\n    function updateContactEmail(string calldata _email) external onlyOwner { contactEmail = _email; }\n    function updateAdditionalTexts(\n        string calldata _text1,\n        string calldata _text2,\n        string calldata _text3\n    ) external onlyOwner {\n        additionalText1 = _text1;\n        additionalText2 = _text2;\n        additionalText3 = _text3;\n    }\n\n    function getJobCore(uint256 jobId)\n        external\n        view\n        returns (\n            address employer,\n            address assignedAgent,\n            uint256 payout,\n            uint256 duration,\n            uint256 assignedAt,\n            bool completed,\n            bool disputed,\n            bool expired,\n            uint8 agentPayoutPct\n        )\n    {\n        Job storage job = _job(jobId);\n        return (\n            job.employer,\n            job.assignedAgent,\n            job.payout,\n            job.duration,\n            job.assignedAt,\n            job.completed,\n            job.disputed,\n            job.expired,\n            job.agentPayoutPct\n        );\n    }\n\n    function getJobValidation(uint256 jobId)\n        external\n        view\n        returns (\n            bool completionRequested,\n            uint256 validatorApprovals,\n            uint256 validatorDisapprovals,\n            uint256 completionRequestedAt,\n            uint256 disputedAt\n        )\n    {\n        Job storage job = _job(jobId);\n        return (\n            job.completionRequested,\n            job.validatorApprovals,\n            job.validatorDisapprovals,\n            job.completionRequestedAt,\n            job.disputedAt\n        );\n    }\n\n    function getJobURIs(uint256 jobId)\n        external\n        view\n        returns (\n            string memory jobSpecURI,\n            string memory jobCompletionURI,\n            string memory ipfsHash,\n            string memory details\n        )\n    {\n        Job storage job = _job(jobId);\n        return (job.jobSpecURI, job.jobCompletionURI, job.ipfsHash, job.details);\n    }\n\n    function setValidationRewardPercentage(uint256 _percentage) external onlyOwner {\n        if (!(_percentage > 0 && _percentage <= 100)) revert InvalidParameters();\n        uint256 maxPct = _maxAGITypePayoutPercentage();\n        if (maxPct > 100 - _percentage) revert InvalidParameters();\n        validationRewardPercentage = _percentage;\n    }\n\n    function calculateReputationPoints(uint256 _payout, uint256 _duration) internal pure returns (uint256) {\n        unchecked {\n            uint256 scaledPayout = _payout / 1e18;\n            uint256 payoutPoints = scaledPayout ** 3 / 1e5;\n            return log2(1 + payoutPoints * 1e6) + _duration / 10000;\n        }\n    }\n\n    function calculateValidatorReputationPoints(uint256 agentReputationGain) internal view returns (uint256) {\n        unchecked {\n            return (agentReputationGain * validationRewardPercentage) / 100;\n        }\n    }\n\n    function log2(uint x) internal pure returns (uint y) {\n        return Math.log2(x);\n    }\n\n    function enforceReputationGrowth(address _user, uint256 _points) internal {\n        uint256 currentReputation = reputation[_user];\n        uint256 newReputation = currentReputation + _points;\n\n        uint256 diminishingFactor = 1 + ((newReputation * newReputation) / (88888 * 88888));\n        uint256 diminishedReputation = newReputation / diminishingFactor;\n\n        if (diminishedReputation > 88888) {\n            reputation[_user] = 88888;\n        } else {\n            reputation[_user] = diminishedReputation;\n        }\n        emit ReputationUpdated(_user, reputation[_user]);\n    }\n\n    function cancelJob(uint256 _jobId) external nonReentrant {\n        Job storage job = _job(_jobId);\n        if (msg.sender != job.employer) revert NotAuthorized();\n        if (job.completed || job.assignedAgent != address(0)) revert InvalidState();\n        _releaseEscrow(job);\n        _t(job.employer, job.payout);\n        delete jobs[_jobId];\n        emit JobCancelled(_jobId);\n    }\n\n    function expireJob(uint256 _jobId) external nonReentrant {\n        Job storage job = _job(_jobId);\n        if (job.completed || job.expired || job.disputed || job.completionRequested) revert InvalidState();\n        if (job.assignedAgent == address(0)) revert InvalidState();\n        if (block.timestamp <= job.assignedAt + job.duration) revert InvalidState();\n\n        job.expired = true;\n        _releaseEscrow(job);\n        _t(job.employer, job.payout);\n        emit JobExpired(_jobId, job.employer, job.assignedAgent, job.payout);\n    }\n\n    function finalizeJob(uint256 _jobId) external nonReentrant {\n        Job storage job = _job(_jobId);\n        _validateFinalization(job);\n\n        if (_shouldFinalizeFromValidators(job)) {\n            _completeJob(_jobId);\n            emit JobFinalized(_jobId, job.assignedAgent, job.employer, true, job.payout);\n            return;\n        }\n\n        bool agentWins = _agentWinsFinalization(job);\n        if (agentWins) {\n            _completeJob(_jobId);\n        } else {\n            _refundEmployer(job);\n        }\n\n        emit JobFinalized(_jobId, job.assignedAgent, job.employer, agentWins, job.payout);\n    }\n\n    function _validateFinalization(Job storage job) internal view {\n        if (job.completed || job.expired || job.disputed) revert InvalidState();\n        if (!job.completionRequested || job.completionRequestedAt == 0) revert InvalidState();\n        if (block.timestamp <= job.completionRequestedAt + completionReviewPeriod) revert InvalidState();\n        if (requiredValidatorDisapprovals > 0 && job.validatorDisapprovals >= requiredValidatorDisapprovals) {\n            revert InvalidState();\n        }\n    }\n\n    function _shouldFinalizeFromValidators(Job storage job) internal view returns (bool) {\n        return requiredValidatorApprovals > 0 && job.validatorApprovals >= requiredValidatorApprovals;\n    }\n\n    function _agentWinsFinalization(Job storage job) internal view returns (bool) {\n        if (job.validatorApprovals == 0 && job.validatorDisapprovals == 0) {\n            return true;\n        }\n        return job.validatorApprovals > job.validatorDisapprovals;\n    }\n\n    function _completeJob(uint256 _jobId) internal {\n        Job storage job = _job(_jobId);\n        _validateCompletion(job);\n        _validatePayoutBounds(job);\n\n        job.completed = true;\n        job.disputed = false;\n        _releaseEscrow(job);\n\n        uint256 reputationPoints = _applyCompletionReputation(job);\n\n        _payAgent(job);\n        _payValidators(job, reputationPoints);\n        _mintJobNft(job);\n\n        emit JobCompleted(_jobId, job.assignedAgent, reputationPoints);\n        emit ReputationUpdated(job.assignedAgent, reputation[job.assignedAgent]);\n    }\n\n    function _validateCompletion(Job storage job) internal view {\n        if (job.completed || job.expired) revert InvalidState();\n        if (job.disputed) revert InvalidState();\n        if (job.assignedAgent == address(0)) revert InvalidState();\n        if (!job.completionRequested) revert InvalidState();\n        _requireValidUri(job.jobCompletionURI);\n    }\n\n    function _validatePayoutBounds(Job storage job) internal view {\n        uint256 agentPayoutPercentage = job.agentPayoutPct;\n        if (agentPayoutPercentage == 0) revert InvalidAgentPayoutSnapshot();\n        uint256 validatorPayoutPercentage = job.validators.length > 0 ? validationRewardPercentage : 0;\n        if (agentPayoutPercentage + validatorPayoutPercentage > 100) revert InvalidParameters();\n        uint256 agentPayout = (job.payout * agentPayoutPercentage) / 100;\n        uint256 totalValidatorPayout = job.validators.length > 0\n            ? (job.payout * validationRewardPercentage) / 100\n            : 0;\n        if (agentPayout + totalValidatorPayout > job.payout) revert InvalidParameters();\n    }\n\n    function _applyCompletionReputation(Job storage job) internal returns (uint256) {\n        uint256 completionTime = block.timestamp - job.assignedAt;\n        uint256 reputationPoints = calculateReputationPoints(job.payout, completionTime);\n        enforceReputationGrowth(job.assignedAgent, reputationPoints);\n        return reputationPoints;\n    }\n\n    function _refundEmployer(Job storage job) internal {\n        job.completed = true;\n        job.disputed = false;\n        job.disputedAt = 0;\n        _releaseEscrow(job);\n        _t(job.employer, job.payout);\n    }\n\n    function _payAgent(Job storage job) internal {\n        uint256 agentPayoutPercentage = job.agentPayoutPct;\n        if (agentPayoutPercentage == 0) revert InvalidAgentPayoutSnapshot();\n        uint256 agentPayout;\n        unchecked {\n            agentPayout = (job.payout * agentPayoutPercentage) / 100;\n        }\n        _t(job.assignedAgent, agentPayout);\n    }\n\n    function _payValidators(Job storage job, uint256 reputationPoints) internal {\n        uint256 vCount = job.validators.length;\n        if (vCount > MAX_VALIDATORS_PER_JOB) revert ValidatorSetTooLarge();\n        if (vCount == 0) return;\n\n        uint256 totalValidatorPayout;\n        uint256 validatorPayout;\n        unchecked {\n            totalValidatorPayout = (job.payout * validationRewardPercentage) / 100;\n            validatorPayout = totalValidatorPayout / vCount;\n        }\n        uint256 validatorReputationGain = calculateValidatorReputationPoints(reputationPoints);\n\n        for (uint256 i = 0; i < vCount; ) {\n            address validator = job.validators[i];\n            _t(validator, validatorPayout);\n            enforceReputationGrowth(validator, validatorReputationGain);\n            unchecked {\n                ++i;\n            }\n        }\n    }\n\n    function _mintJobNft(Job storage job) internal {\n        uint256 tokenId = nextTokenId;\n        unchecked {\n            ++nextTokenId;\n        }\n        _requireValidUri(job.jobCompletionURI);\n        string memory tokenUriValue = _formatTokenURI(job.jobCompletionURI);\n        _mint(job.employer, tokenId);\n        _setTokenURI(tokenId, tokenUriValue);\n        emit NFTIssued(tokenId, job.employer, tokenUriValue);\n    }\n\n    function tokenURI(uint256 tokenId) public view override returns (string memory) {\n        _requireMinted(tokenId);\n        return _tokenURIs[tokenId];\n    }\n\n    function _setTokenURI(uint256 tokenId, string memory _tokenURI) internal {\n        _requireMinted(tokenId);\n        _tokenURIs[tokenId] = _tokenURI;\n    }\n\n    function _formatTokenURI(string memory uri) internal view returns (string memory) {\n        if (_isFullUri(uri)) {\n            return uri;\n        }\n        if (bytes(baseIpfsUrl).length == 0) {\n            return uri;\n        }\n        return string(abi.encodePacked(baseIpfsUrl, \"/\", uri));\n    }\n\n    function _isFullUri(string memory uri) internal pure returns (bool) {\n        bytes memory data = bytes(uri);\n        if (data.length < 3) return false;\n        for (uint256 i = 0; i + 2 < data.length; ) {\n            if (data[i] == \":\" && data[i + 1] == \"/\" && data[i + 2] == \"/\") {\n                return true;\n            }\n            unchecked {\n                ++i;\n            }\n        }\n        return false;\n    }\n\n    function _requireValidUri(string memory uri) internal pure {\n        bytes memory data = bytes(uri);\n        if (data.length == 0) revert InvalidParameters();\n        for (uint256 i = 0; i < data.length; ) {\n            bytes1 c = data[i];\n            if (c == 0x20 || c == 0x09 || c == 0x0a || c == 0x0d) revert InvalidParameters();\n            unchecked {\n                ++i;\n            }\n        }\n    }\n\n    function listNFT(uint256 tokenId, uint256 price) external whenNotPaused {\n        if (ownerOf(tokenId) != msg.sender) revert NotAuthorized();\n        if (price == 0) revert InvalidParameters();\n        listings[tokenId] = Listing(tokenId, msg.sender, price, true);\n        emit NFTListed(tokenId, msg.sender, price);\n    }\n\n    function purchaseNFT(uint256 tokenId) external whenNotPaused nonReentrant {\n        Listing storage listing = listings[tokenId];\n        if (!listing.isActive) revert InvalidState();\n        address seller = listing.seller;\n        uint256 price = listing.price;\n        if (seller == address(0)) revert InvalidState();\n        if (seller == msg.sender) revert NotAuthorized();\n        if (price == 0) revert InvalidParameters();\n        if (ownerOf(tokenId) != seller) revert InvalidState();\n        listing.isActive = false;\n        _tFrom(msg.sender, seller, price);\n        _safeTransfer(seller, msg.sender, tokenId, \"\");\n        emit NFTPurchased(tokenId, msg.sender, price);\n    }\n\n    function delistNFT(uint256 tokenId) external whenNotPaused {\n        Listing storage listing = listings[tokenId];\n        if (!listing.isActive || listing.seller != msg.sender) revert NotAuthorized();\n        listing.isActive = false;\n        emit NFTDelisted(tokenId);\n    }\n\n    function _verifyOwnershipAgent(address claimant, string memory subdomain, bytes32[] calldata proof) internal returns (bool) {\n        if (proof.verify(agentMerkleRoot, keccak256(abi.encodePacked(claimant)))) {\n            emit OwnershipVerified(claimant, subdomain);\n            return true;\n        }\n\n        if (_verifyOwnershipByRoot(claimant, subdomain, agentRootNode)) {\n            emit OwnershipVerified(claimant, subdomain);\n            return true;\n        }\n\n        if (_verifyOwnershipByRoot(claimant, subdomain, alphaAgentRootNode)) {\n            emit OwnershipVerified(claimant, subdomain);\n            return true;\n        }\n\n        return false;\n    }\n\n    function _verifyOwnershipValidator(address claimant, string memory subdomain, bytes32[] calldata proof) internal returns (bool) {\n        if (proof.verify(validatorMerkleRoot, keccak256(abi.encodePacked(claimant)))) {\n            emit OwnershipVerified(claimant, subdomain);\n            return true;\n        }\n\n        if (_verifyOwnershipByRoot(claimant, subdomain, clubRootNode)) {\n            emit OwnershipVerified(claimant, subdomain);\n            return true;\n        }\n\n        if (_verifyOwnershipByRoot(claimant, subdomain, alphaClubRootNode)) {\n            emit OwnershipVerified(claimant, subdomain);\n            return true;\n        }\n\n        return false;\n    }\n\n    function _verifyOwnershipByRoot(address claimant, string memory subdomain, bytes32 rootNode) internal returns (bool) {\n        if (rootNode == bytes32(0)) {\n            return false;\n        }\n        bytes32 subnode = keccak256(abi.encodePacked(rootNode, keccak256(bytes(subdomain))));\n        if (_verifyNameWrapperOwnership(claimant, subnode)) {\n            return true;\n        }\n\n        if (_verifyResolverOwnership(claimant, subnode)) {\n            return true;\n        }\n\n        return false;\n    }\n\n    function _verifyNameWrapperOwnership(address claimant, bytes32 subnode) internal returns (bool) {\n        try nameWrapper.ownerOf(uint256(subnode)) returns (address actualOwner) {\n            return actualOwner == claimant;\n        } catch {\n            emit RecoveryInitiated(\"NW_FAIL\");\n        }\n        return false;\n    }\n\n    function _verifyResolverOwnership(address claimant, bytes32 subnode) internal returns (bool) {\n        address resolverAddress = ens.resolver(subnode);\n        if (resolverAddress == address(0)) {\n            emit RecoveryInitiated(\"NO_RES\");\n            return false;\n        }\n\n        Resolver resolver = Resolver(resolverAddress);\n        try resolver.addr(subnode) returns (address payable resolvedAddress) {\n            return resolvedAddress == claimant;\n        } catch {\n            emit RecoveryInitiated(\"RES_FAIL\");\n        }\n        return false;\n    }\n\n    function addAdditionalValidator(address validator) external onlyOwner { additionalValidators[validator] = true; }\n    function removeAdditionalValidator(address validator) external onlyOwner { additionalValidators[validator] = false; }\n    function addAdditionalAgent(address agent) external onlyOwner { additionalAgents[agent] = true; }\n    function removeAdditionalAgent(address agent) external onlyOwner { additionalAgents[agent] = false; }\n\n    function withdrawableAGI() public view returns (uint256) {\n        uint256 bal = agiToken.balanceOf(address(this));\n        if (bal < lockedEscrow) revert InsolventEscrowBalance();\n        return bal - lockedEscrow;\n    }\n\n    function withdrawAGI(uint256 amount) external onlyOwner whenPaused nonReentrant {\n        if (amount == 0) revert InvalidParameters();\n        uint256 available = withdrawableAGI();\n        if (amount > available) revert InsufficientWithdrawableBalance();\n        _t(msg.sender, amount);\n        emit AGIWithdrawn(msg.sender, amount, available - amount);\n    }\n\n    function canAccessPremiumFeature(address user) public view returns (bool) {\n        return reputation[user] >= premiumReputationThreshold;\n    }\n\n    function contributeToRewardPool(uint256 amount) external whenNotPaused nonReentrant {\n        if (amount == 0) revert InvalidParameters();\n        _safeERC20TransferFromExact(agiToken, msg.sender, address(this), amount);\n        emit RewardPoolContribution(msg.sender, amount);\n    }\n\n    function addAGIType(address nftAddress, uint256 payoutPercentage) external onlyOwner {\n        if (!(nftAddress != address(0) && payoutPercentage > 0 && payoutPercentage <= 100)) revert InvalidParameters();\n\n        (bool exists, uint256 maxPct) = _maxAGITypePayoutAfterUpdate(nftAddress, payoutPercentage);\n        if (maxPct > 100 - validationRewardPercentage) revert InvalidParameters();\n        if (exists) {\n            _updateAgiTypePayout(nftAddress, payoutPercentage);\n        } else {\n            agiTypes.push(AGIType({ nftAddress: nftAddress, payoutPercentage: payoutPercentage }));\n        }\n\n        emit AGITypeUpdated(nftAddress, payoutPercentage);\n    }\n\n    function _maxAGITypePayoutAfterUpdate(address nftAddress, uint256 payoutPercentage) internal view returns (bool exists, uint256 maxPct) {\n        maxPct = payoutPercentage;\n        for (uint256 i = 0; i < agiTypes.length; ) {\n            uint256 pct = agiTypes[i].payoutPercentage;\n            if (agiTypes[i].nftAddress == nftAddress) {\n                pct = payoutPercentage;\n                exists = true;\n            }\n            if (pct > maxPct) {\n                maxPct = pct;\n            }\n            unchecked {\n                ++i;\n            }\n        }\n    }\n\n    function _updateAgiTypePayout(address nftAddress, uint256 payoutPercentage) internal {\n        for (uint256 i = 0; i < agiTypes.length; ) {\n            if (agiTypes[i].nftAddress == nftAddress) {\n                agiTypes[i].payoutPercentage = payoutPercentage;\n                break;\n            }\n            unchecked {\n                ++i;\n            }\n        }\n    }\n\n    function getHighestPayoutPercentage(address agent) public view returns (uint256) {\n        uint256 highestPercentage = 0;\n        for (uint256 i = 0; i < agiTypes.length; ) {\n            if (IERC721(agiTypes[i].nftAddress).balanceOf(agent) > 0 && agiTypes[i].payoutPercentage > highestPercentage) {\n                highestPercentage = agiTypes[i].payoutPercentage;\n            }\n            unchecked {\n                ++i;\n            }\n        }\n        return highestPercentage;\n    }\n}\n",
  "sourcePath": "/workspace/AGIJobManager/contracts/AGIJobManager.sol",
  "compiler": {
    "name": "solc",
    "version": "0.8.24+commit.e11b9ed9.Emscripten.clang"
  },
  "schemaVersion": "3.4.16",
  "updatedAt": "2026-02-03T18:27:39.128Z",
  "devdoc": {
    "events": {
      "Approval(address,address,uint256)": {
        "details": "Emitted when `owner` enables `approved` to manage the `tokenId` token."
      },
      "ApprovalForAll(address,address,bool)": {
        "details": "Emitted when `owner` enables or disables (`approved`) `operator` to manage all of its assets."
      },
      "Paused(address)": {
        "details": "Emitted when the pause is triggered by `account`."
      },
      "Transfer(address,address,uint256)": {
        "details": "Emitted when `tokenId` token is transferred from `from` to `to`."
      },
      "Unpaused(address)": {
        "details": "Emitted when the pause is lifted by `account`."
      }
    },
    "kind": "dev",
    "methods": {
      "approve(address,uint256)": {
        "details": "See {IERC721-approve}."
      },
      "balanceOf(address)": {
        "details": "See {IERC721-balanceOf}."
      },
      "getApproved(uint256)": {
        "details": "See {IERC721-getApproved}."
      },
      "isApprovedForAll(address,address)": {
        "details": "See {IERC721-isApprovedForAll}."
      },
      "name()": {
        "details": "See {IERC721Metadata-name}."
      },
      "owner()": {
        "details": "Returns the address of the current owner."
      },
      "ownerOf(uint256)": {
        "details": "See {IERC721-ownerOf}."
      },
      "paused()": {
        "details": "Returns true if the contract is paused, and false otherwise."
      },
      "renounceOwnership()": {
        "details": "Leaves the contract without owner. It will not be possible to call `onlyOwner` functions. Can only be called by the current owner. NOTE: Renouncing ownership will leave the contract without an owner, thereby disabling any functionality that is only available to the owner."
      },
      "resolveDispute(uint256,string)": {
        "details": "Non-canonical strings map to NO_ACTION (dispute remains active)."
      },
      "safeTransferFrom(address,address,uint256)": {
        "details": "See {IERC721-safeTransferFrom}."
      },
      "safeTransferFrom(address,address,uint256,bytes)": {
        "details": "See {IERC721-safeTransferFrom}."
      },
      "setApprovalForAll(address,bool)": {
        "details": "See {IERC721-setApprovalForAll}."
      },
      "supportsInterface(bytes4)": {
        "details": "See {IERC165-supportsInterface}."
      },
      "symbol()": {
        "details": "See {IERC721Metadata-symbol}."
      },
      "tokenURI(uint256)": {
        "details": "See {IERC721Metadata-tokenURI}."
      },
      "transferFrom(address,address,uint256)": {
        "details": "See {IERC721-transferFrom}."
      },
      "transferOwnership(address)": {
        "details": "Transfers ownership of the contract to a new account (`newOwner`). Can only be called by the current owner."
      }
    },
    "stateVariables": {
      "lockedEscrow": {
        "details": "Tracks job payout escrows only."
      }
    },
    "version": 1
  },
  "userdoc": {
    "kind": "user",
    "methods": {
      "lockedEscrow()": {
        "notice": "Total AGI reserved for unsettled job escrows."
      },
      "resolveDispute(uint256,string)": {
        "notice": "Deprecated: use resolveDisputeWithCode for typed settlement."
      },
      "resolveDisputeWithCode(uint256,uint8,string)": {
        "notice": "Resolve a dispute with a typed action code and freeform reason."
      }
    },
    "version": 1
  }
}